{
  "contractName": "SuperFractionalizer",
  "abi": [
    {
      "inputs": [
        {
          "internalType": "contract ISuperTokenFactory",
          "name": "factory",
          "type": "address"
        }
      ],
      "stateMutability": "nonpayable",
      "type": "constructor"
    },
    {
      "inputs": [],
      "name": "NotApproved",
      "type": "error"
    },
    {
      "inputs": [],
      "name": "NotTokenOwner",
      "type": "error"
    },
    {
      "anonymous": false,
      "inputs": [
        {
          "indexed": false,
          "internalType": "address",
          "name": "receiver",
          "type": "address"
        },
        {
          "indexed": false,
          "internalType": "address",
          "name": "erc721Token",
          "type": "address"
        },
        {
          "indexed": false,
          "internalType": "uint256",
          "name": "tokenId",
          "type": "uint256"
        },
        {
          "indexed": false,
          "internalType": "address",
          "name": "superFractionalized",
          "type": "address"
        },
        {
          "indexed": false,
          "internalType": "uint256",
          "name": "initialSupply",
          "type": "uint256"
        }
      ],
      "name": "Fractionalized",
      "type": "event"
    },
    {
      "inputs": [
        {
          "internalType": "contract IERC721",
          "name": "_erc721",
          "type": "address"
        },
        {
          "internalType": "string",
          "name": "_name",
          "type": "string"
        },
        {
          "internalType": "string",
          "name": "_symbol",
          "type": "string"
        },
        {
          "internalType": "uint256",
          "name": "_tokenId",
          "type": "uint256"
        },
        {
          "internalType": "uint256",
          "name": "_initialSupply",
          "type": "uint256"
        }
      ],
      "name": "fractionalize",
      "outputs": [
        {
          "internalType": "address",
          "name": "_superFractionalized",
          "type": "address"
        }
      ],
      "stateMutability": "nonpayable",
      "type": "function"
    }
  ],
  "bytecode": "0x60a060405234801561001057600080fd5b5060405161167a38038061167a833981810160405281019061003291906100e1565b8073ffffffffffffffffffffffffffffffffffffffff1660808173ffffffffffffffffffffffffffffffffffffffff16815250505061010e565b600080fd5b600073ffffffffffffffffffffffffffffffffffffffff82169050919050565b600061009c82610071565b9050919050565b60006100ae82610091565b9050919050565b6100be816100a3565b81146100c957600080fd5b50565b6000815190506100db816100b5565b92915050565b6000602082840312156100f7576100f661006c565b5b6000610105848285016100cc565b91505092915050565b608051611551610129600039600061028101526115516000f3fe608060405234801561001057600080fd5b506004361061002b5760003560e01c806314abfa6c14610030575b600080fd5b61004a60048036038101906100459190610645565b610060565b6040516100579190610707565b60405180910390f35b60008573ffffffffffffffffffffffffffffffffffffffff16636352211e846040518263ffffffff1660e01b815260040161009b9190610731565b602060405180830381865afa1580156100b8573d6000803e3d6000fd5b505050506040513d601f19601f820116820180604052508101906100dc9190610778565b73ffffffffffffffffffffffffffffffffffffffff163373ffffffffffffffffffffffffffffffffffffffff1614610140576040517f59dc379f00000000000000000000000000000000000000000000000000000000815260040160405180910390fd5b8573ffffffffffffffffffffffffffffffffffffffff1663081812fc846040518263ffffffff1660e01b81526004016101799190610731565b602060405180830381865afa158015610196573d6000803e3d6000fd5b505050506040513d601f19601f820116820180604052508101906101ba9190610778565b73ffffffffffffffffffffffffffffffffffffffff163073ffffffffffffffffffffffffffffffffffffffff161461021e576040517fc19f17a900000000000000000000000000000000000000000000000000000000815260040160405180910390fd5b60008684604051602001610233929190610804565b60405160208183030381529060405280519060200120905060006040518060200161025d90610438565b6020820181038252601f19601f820116604052509050818151602083016000f592507f000000000000000000000000000000000000000000000000000000000000000073ffffffffffffffffffffffffffffffffffffffff1663d412d344846040518263ffffffff1660e01b81526004016102d89190610707565b600060405180830381600087803b1580156102f257600080fd5b505af1158015610306573d6000803e3d6000fd5b505050508273ffffffffffffffffffffffffffffffffffffffff1663767ab122888887898d336040518763ffffffff1660e01b815260040161034d969594939291906108b5565b600060405180830381600087803b15801561036757600080fd5b505af115801561037b573d6000803e3d6000fd5b505050508773ffffffffffffffffffffffffffffffffffffffff166323b872dd3385886040518463ffffffff1660e01b81526004016103bc93929190610924565b600060405180830381600087803b1580156103d657600080fd5b505af11580156103ea573d6000803e3d6000fd5b505050507f4d2410e983f5be94775de3818f8a324dc42e066370ef1c9bfe96b4078f64a91f338987868860405161042595949392919061095b565b60405180910390a1505095945050505050565b610b6d806109af83390190565b6000604051905090565b600080fd5b600080fd5b600073ffffffffffffffffffffffffffffffffffffffff82169050919050565b600061048482610459565b9050919050565b600061049682610479565b9050919050565b6104a68161048b565b81146104b157600080fd5b50565b6000813590506104c38161049d565b92915050565b600080fd5b600080fd5b6000601f19601f8301169050919050565b7f4e487b7100000000000000000000000000000000000000000000000000000000600052604160045260246000fd5b61051c826104d3565b810181811067ffffffffffffffff8211171561053b5761053a6104e4565b5b80604052505050565b600061054e610445565b905061055a8282610513565b919050565b600067ffffffffffffffff82111561057a576105796104e4565b5b610583826104d3565b9050602081019050919050565b82818337600083830152505050565b60006105b26105ad8461055f565b610544565b9050828152602081018484840111156105ce576105cd6104ce565b5b6105d9848285610590565b509392505050565b600082601f8301126105f6576105f56104c9565b5b813561060684826020860161059f565b91505092915050565b6000819050919050565b6106228161060f565b811461062d57600080fd5b50565b60008135905061063f81610619565b92915050565b600080600080600060a086880312156106615761066061044f565b5b600061066f888289016104b4565b955050602086013567ffffffffffffffff8111156106905761068f610454565b5b61069c888289016105e1565b945050604086013567ffffffffffffffff8111156106bd576106bc610454565b5b6106c9888289016105e1565b93505060606106da88828901610630565b92505060806106eb88828901610630565b9150509295509295909350565b61070181610479565b82525050565b600060208201905061071c60008301846106f8565b92915050565b61072b8161060f565b82525050565b60006020820190506107466000830184610722565b92915050565b61075581610479565b811461076057600080fd5b50565b6000815190506107728161074c565b92915050565b60006020828403121561078e5761078d61044f565b5b600061079c84828501610763565b91505092915050565b6000819050919050565b60006107ca6107c56107c084610459565b6107a5565b610459565b9050919050565b60006107dc826107af565b9050919050565b60006107ee826107d1565b9050919050565b6107fe816107e3565b82525050565b600060408201905061081960008301856107f5565b6108266020830184610722565b9392505050565b600081519050919050565b600082825260208201905092915050565b60005b8381101561086757808201518184015260208101905061084c565b83811115610876576000848401525b50505050565b60006108878261082d565b6108918185610838565b93506108a1818560208601610849565b6108aa816104d3565b840191505092915050565b600060c08201905081810360008301526108cf818961087c565b905081810360208301526108e3818861087c565b90506108f26040830187610722565b6108ff6060830186610722565b61090c60808301856106f8565b61091960a08301846106f8565b979650505050505050565b600060608201905061093960008301866106f8565b61094660208301856106f8565b6109536040830184610722565b949350505050565b600060a08201905061097060008301886106f8565b61097d60208301876106f8565b61098a6040830186610722565b61099760608301856106f8565b6109a46080830184610722565b969550505050505056fe608060405234801561001057600080fd5b50610b4d806100206000396000f3fe60806040526004361061004e5760003560e01c806317d70f7c146100675780633c130d90146100925780634a0687ef146100bd578063767ab122146100e65780639d76ea581461010f5761005d565b3661005d5761005b61013a565b005b61006561013a565b005b34801561007357600080fd5b5061007c610154565b604051610089919061050c565b60405180910390f35b34801561009e57600080fd5b506100a761015a565b6040516100b491906105c0565b60405180910390f35b3480156100c957600080fd5b506100e460048036038101906100df9190610654565b610204565b005b3480156100f257600080fd5b5061010d600480360381019061010891906107e2565b6102fe565b005b34801561011b57600080fd5b5061012461047c565b60405161013191906108b6565b60405180910390f35b6101426104a2565b61015261014d6104a4565b6104cd565b565b60205481565b6060602160009054906101000a900473ffffffffffffffffffffffffffffffffffffffff1673ffffffffffffffffffffffffffffffffffffffff1663c87b56dd6020546040518263ffffffff1660e01b81526004016101b9919061050c565b600060405180830381865afa1580156101d6573d6000803e3d6000fd5b505050506040513d6000823e3d601f19601f820116820180604052508101906101ff9190610941565b905090565b600073ffffffffffffffffffffffffffffffffffffffff168173ffffffffffffffffffffffffffffffffffffffff16141561026b576040517fd92e233d00000000000000000000000000000000000000000000000000000000815260040160405180910390fd5b600073ffffffffffffffffffffffffffffffffffffffff1661028b6104a4565b73ffffffffffffffffffffffffffffffffffffffff16146102d8576040517f5daa87a000000000000000000000000000000000000000000000000000000000815260040160405180910390fd5b807f360894a13ba1a3210667c828492db98dca3e2076cc3735a920a3ca505d382bbc5550565b8260208190555081602160006101000a81548173ffffffffffffffffffffffffffffffffffffffff021916908373ffffffffffffffffffffffffffffffffffffffff1602179055503073ffffffffffffffffffffffffffffffffffffffff166342fe098060008089896040518563ffffffff1660e01b81526004016103869493929190610a31565b600060405180830381600087803b1580156103a057600080fd5b505af11580156103b4573d6000803e3d6000fd5b505050503073ffffffffffffffffffffffffffffffffffffffff1663c68d42838286600067ffffffffffffffff8111156103f1576103f061068b565b5b6040519080825280601f01601f1916602001820160405280156104235781602001600182028036833780820191505090505b506040518463ffffffff1660e01b815260040161044293929190610ad9565b600060405180830381600087803b15801561045c57600080fd5b505af1158015610470573d6000803e3d6000fd5b50505050505050505050565b602160009054906101000a900473ffffffffffffffffffffffffffffffffffffffff1681565b565b60007f360894a13ba1a3210667c828492db98dca3e2076cc3735a920a3ca505d382bbc54905090565b3660008037600080366000845af43d6000803e80600081146104ee573d6000f35b3d6000fd5b6000819050919050565b610506816104f3565b82525050565b600060208201905061052160008301846104fd565b92915050565b600081519050919050565b600082825260208201905092915050565b60005b83811015610561578082015181840152602081019050610546565b83811115610570576000848401525b50505050565b6000601f19601f8301169050919050565b600061059282610527565b61059c8185610532565b93506105ac818560208601610543565b6105b581610576565b840191505092915050565b600060208201905081810360008301526105da8184610587565b905092915050565b6000604051905090565b600080fd5b600080fd5b600073ffffffffffffffffffffffffffffffffffffffff82169050919050565b6000610621826105f6565b9050919050565b61063181610616565b811461063c57600080fd5b50565b60008135905061064e81610628565b92915050565b60006020828403121561066a576106696105ec565b5b60006106788482850161063f565b91505092915050565b600080fd5b600080fd5b7f4e487b7100000000000000000000000000000000000000000000000000000000600052604160045260246000fd5b6106c382610576565b810181811067ffffffffffffffff821117156106e2576106e161068b565b5b80604052505050565b60006106f56105e2565b905061070182826106ba565b919050565b600067ffffffffffffffff8211156107215761072061068b565b5b61072a82610576565b9050602081019050919050565b82818337600083830152505050565b600061075961075484610706565b6106eb565b90508281526020810184848401111561077557610774610686565b5b610780848285610737565b509392505050565b600082601f83011261079d5761079c610681565b5b81356107ad848260208601610746565b91505092915050565b6107bf816104f3565b81146107ca57600080fd5b50565b6000813590506107dc816107b6565b92915050565b60008060008060008060c087890312156107ff576107fe6105ec565b5b600087013567ffffffffffffffff81111561081d5761081c6105f1565b5b61082989828a01610788565b965050602087013567ffffffffffffffff81111561084a576108496105f1565b5b61085689828a01610788565b955050604061086789828a016107cd565b945050606061087889828a016107cd565b935050608061088989828a0161063f565b92505060a061089a89828a0161063f565b9150509295509295509295565b6108b081610616565b82525050565b60006020820190506108cb60008301846108a7565b92915050565b60006108e46108df84610706565b6106eb565b905082815260208101848484011115610900576108ff610686565b5b61090b848285610543565b509392505050565b600082601f83011261092857610927610681565b5b81516109388482602086016108d1565b91505092915050565b600060208284031215610957576109566105ec565b5b600082015167ffffffffffffffff811115610975576109746105f1565b5b61098184828501610913565b91505092915050565b6000819050919050565b60006109af6109aa6109a5846105f6565b61098a565b6105f6565b9050919050565b60006109c182610994565b9050919050565b60006109d3826109b6565b9050919050565b6109e3816109c8565b82525050565b6000819050919050565b600060ff82169050919050565b6000610a1b610a16610a11846109e9565b61098a565b6109f3565b9050919050565b610a2b81610a00565b82525050565b6000608082019050610a4660008301876109da565b610a536020830186610a22565b8181036040830152610a658185610587565b90508181036060830152610a798184610587565b905095945050505050565b600081519050919050565b600082825260208201905092915050565b6000610aab82610a84565b610ab58185610a8f565b9350610ac5818560208601610543565b610ace81610576565b840191505092915050565b6000606082019050610aee60008301866108a7565b610afb60208301856104fd565b8181036040830152610b0d8184610aa0565b905094935050505056fea2646970667358221220063dd2cd7e2efddb05a144d3b3c31135f02432c4b15d2ef301778117f8d15ce564736f6c634300080b0033a2646970667358221220b398030daac20a5c74ba03c9261b02bd22340c9776c78f48941179994a627a6f64736f6c634300080b0033",
  "immutableReferences": {
    "3735": [
      {
        "length": 32,
        "start": 641
      }
    ]
  },
  "source": "// SPDX-License-Identifier: AGPLv3\npragma solidity ^0.8.0;\n\nimport {ISuperFractionalizer} from \"./interfaces/ISuperFractionalizer.sol\";\nimport {SuperFractionalized} from \"./SuperFractionalized.sol\";\nimport {ISuperFractionalized} from \"./interfaces/ISuperFractionalized.sol\";\n\nimport {IERC721} from \"@openzeppelin/contracts/token/ERC721/IERC721.sol\";\nimport {ISuperTokenFactory} from \"@superfluid-finance/ethereum-contracts/contracts/interfaces/superfluid/ISuperTokenFactory.sol\";\n\ncontract SuperFractionalizer is ISuperFractionalizer {\n\tISuperTokenFactory internal immutable _factory;\n\n\tconstructor(ISuperTokenFactory factory) {\n\t\t_factory = factory;\n\t}\n\n\t/// @dev Implementation of ISuperFractionalizer.fractionalize\n\t/// MUST have approved SuperFractionalizer\n\t/// MUST be owner of NFT\n\tfunction fractionalize(\n\t\tIERC721 _erc721,\n\t\tstring memory _name,\n\t\tstring memory _symbol,\n\t\tuint256 _tokenId,\n\t\tuint256 _initialSupply\n\t) public override returns (address _superFractionalized) {\n\t\t// CHECKS\n\t\tif (msg.sender != _erc721.ownerOf(_tokenId)) revert NotTokenOwner();\n\t\tif (address(this) != _erc721.getApproved(_tokenId))\n\t\t\trevert NotApproved();\n\n\t\t// DEPLOY\n\t\tbytes32 salt = keccak256(abi.encode(_erc721, _tokenId));\n\t\tbytes memory bytecode = type(SuperFractionalized).creationCode;\n\t\tassembly {\n\t\t\t_superFractionalized := create2(\n\t\t\t\t0,\n\t\t\t\tadd(bytecode, 32),\n\t\t\t\tmload(bytecode),\n\t\t\t\tsalt\n\t\t\t)\n\t\t}\n\n\t\t// UPGRADE WITH THE FACTORY\n\t\t_factory.initializeCustomSuperToken(_superFractionalized);\n\n\t\t// INTIALIZE\n\t\tISuperFractionalized(_superFractionalized).initialize(\n\t\t\t_name,\n\t\t\t_symbol,\n\t\t\t_initialSupply,\n\t\t\t_tokenId,\n\t\t\taddress(_erc721),\n\t\t\tmsg.sender\n\t\t);\n\n        // LOCK THE NFT\n        _erc721.transferFrom(msg.sender, _superFractionalized, _tokenId);\n\n\t\t// EMIT\n\t\temit Fractionalized(\n\t\t\tmsg.sender,\n\t\t\taddress(_erc721),\n\t\t\t_tokenId,\n\t\t\t_superFractionalized,\n\t\t\t_initialSupply\n\t\t);\n\t}\n}\n",
  "sourcePath": "/Users/joshuatrujillo/Documents/github/FluidX/superfractionalizer/ethereum-contracts/contracts/SuperFractionalizer.sol",
  "compiler": {
    "name": "solc",
    "version": "0.8.11+commit.d7f03943.Emscripten.clang"
  },
  "schemaVersion": "3.4.4",
  "updatedAt": "2022-01-15T12:13:43.846Z",
  "devdoc": {
    "errors": {
      "NotApproved()": [
        {
          "details": "Thrown when user has not approved this contract to transferFrom"
        }
      ],
      "NotTokenOwner()": [
        {
          "details": "Thrown when user is not the owner of the token"
        }
      ]
    },
    "kind": "dev",
    "methods": {
      "fractionalize(address,string,string,uint256,uint256)": {
        "details": "Implementation of ISuperFractionalizer.fractionalize MUST have approved SuperFractionalizer MUST be owner of NFT"
      }
    },
    "version": 1
  },
  "userdoc": {
    "events": {
      "Fractionalized(address,address,uint256,address,uint256)": {
        "notice": "Emitted when super token is fractionalized"
      }
    },
    "kind": "user",
    "methods": {},
    "version": 1
  }
}