{
  "contractName": "SuperFractionalized",
  "abi": [
    {
      "inputs": [],
      "name": "Initialized",
      "type": "error"
    },
    {
      "inputs": [],
      "name": "ZeroAddress",
      "type": "error"
    },
    {
      "stateMutability": "payable",
      "type": "fallback"
    },
    {
      "inputs": [
        {
          "internalType": "address",
          "name": "initialAddress",
          "type": "address"
        }
      ],
      "name": "initializeProxy",
      "outputs": [],
      "stateMutability": "nonpayable",
      "type": "function"
    },
    {
      "inputs": [],
      "name": "tokenAddress",
      "outputs": [
        {
          "internalType": "address",
          "name": "",
          "type": "address"
        }
      ],
      "stateMutability": "view",
      "type": "function"
    },
    {
      "inputs": [],
      "name": "tokenId",
      "outputs": [
        {
          "internalType": "uint256",
          "name": "",
          "type": "uint256"
        }
      ],
      "stateMutability": "view",
      "type": "function"
    },
    {
      "stateMutability": "payable",
      "type": "receive"
    },
    {
      "inputs": [
        {
          "internalType": "string",
          "name": "name",
          "type": "string"
        },
        {
          "internalType": "string",
          "name": "symbol",
          "type": "string"
        },
        {
          "internalType": "uint256",
          "name": "initalSupply",
          "type": "uint256"
        },
        {
          "internalType": "uint256",
          "name": "tokenId_",
          "type": "uint256"
        },
        {
          "internalType": "address",
          "name": "tokenAddress_",
          "type": "address"
        },
        {
          "internalType": "address",
          "name": "recipient",
          "type": "address"
        }
      ],
      "name": "initialize",
      "outputs": [],
      "stateMutability": "nonpayable",
      "type": "function"
    },
    {
      "inputs": [],
      "name": "tokenURI",
      "outputs": [
        {
          "internalType": "string",
          "name": "_uri",
          "type": "string"
        }
      ],
      "stateMutability": "view",
      "type": "function"
    }
  ],
  "bytecode": "0x608060405234801561001057600080fd5b50610b4d806100206000396000f3fe60806040526004361061004e5760003560e01c806317d70f7c146100675780633c130d90146100925780634a0687ef146100bd578063767ab122146100e65780639d76ea581461010f5761005d565b3661005d5761005b61013a565b005b61006561013a565b005b34801561007357600080fd5b5061007c610154565b604051610089919061050c565b60405180910390f35b34801561009e57600080fd5b506100a761015a565b6040516100b491906105c0565b60405180910390f35b3480156100c957600080fd5b506100e460048036038101906100df9190610654565b610204565b005b3480156100f257600080fd5b5061010d600480360381019061010891906107e2565b6102fe565b005b34801561011b57600080fd5b5061012461047c565b60405161013191906108b6565b60405180910390f35b6101426104a2565b61015261014d6104a4565b6104cd565b565b60205481565b6060602160009054906101000a900473ffffffffffffffffffffffffffffffffffffffff1673ffffffffffffffffffffffffffffffffffffffff1663c87b56dd6020546040518263ffffffff1660e01b81526004016101b9919061050c565b600060405180830381865afa1580156101d6573d6000803e3d6000fd5b505050506040513d6000823e3d601f19601f820116820180604052508101906101ff9190610941565b905090565b600073ffffffffffffffffffffffffffffffffffffffff168173ffffffffffffffffffffffffffffffffffffffff16141561026b576040517fd92e233d00000000000000000000000000000000000000000000000000000000815260040160405180910390fd5b600073ffffffffffffffffffffffffffffffffffffffff1661028b6104a4565b73ffffffffffffffffffffffffffffffffffffffff16146102d8576040517f5daa87a000000000000000000000000000000000000000000000000000000000815260040160405180910390fd5b807f360894a13ba1a3210667c828492db98dca3e2076cc3735a920a3ca505d382bbc5550565b8260208190555081602160006101000a81548173ffffffffffffffffffffffffffffffffffffffff021916908373ffffffffffffffffffffffffffffffffffffffff1602179055503073ffffffffffffffffffffffffffffffffffffffff166342fe098060008089896040518563ffffffff1660e01b81526004016103869493929190610a31565b600060405180830381600087803b1580156103a057600080fd5b505af11580156103b4573d6000803e3d6000fd5b505050503073ffffffffffffffffffffffffffffffffffffffff1663c68d42838286600067ffffffffffffffff8111156103f1576103f061068b565b5b6040519080825280601f01601f1916602001820160405280156104235781602001600182028036833780820191505090505b506040518463ffffffff1660e01b815260040161044293929190610ad9565b600060405180830381600087803b15801561045c57600080fd5b505af1158015610470573d6000803e3d6000fd5b50505050505050505050565b602160009054906101000a900473ffffffffffffffffffffffffffffffffffffffff1681565b565b60007f360894a13ba1a3210667c828492db98dca3e2076cc3735a920a3ca505d382bbc54905090565b3660008037600080366000845af43d6000803e80600081146104ee573d6000f35b3d6000fd5b6000819050919050565b610506816104f3565b82525050565b600060208201905061052160008301846104fd565b92915050565b600081519050919050565b600082825260208201905092915050565b60005b83811015610561578082015181840152602081019050610546565b83811115610570576000848401525b50505050565b6000601f19601f8301169050919050565b600061059282610527565b61059c8185610532565b93506105ac818560208601610543565b6105b581610576565b840191505092915050565b600060208201905081810360008301526105da8184610587565b905092915050565b6000604051905090565b600080fd5b600080fd5b600073ffffffffffffffffffffffffffffffffffffffff82169050919050565b6000610621826105f6565b9050919050565b61063181610616565b811461063c57600080fd5b50565b60008135905061064e81610628565b92915050565b60006020828403121561066a576106696105ec565b5b60006106788482850161063f565b91505092915050565b600080fd5b600080fd5b7f4e487b7100000000000000000000000000000000000000000000000000000000600052604160045260246000fd5b6106c382610576565b810181811067ffffffffffffffff821117156106e2576106e161068b565b5b80604052505050565b60006106f56105e2565b905061070182826106ba565b919050565b600067ffffffffffffffff8211156107215761072061068b565b5b61072a82610576565b9050602081019050919050565b82818337600083830152505050565b600061075961075484610706565b6106eb565b90508281526020810184848401111561077557610774610686565b5b610780848285610737565b509392505050565b600082601f83011261079d5761079c610681565b5b81356107ad848260208601610746565b91505092915050565b6107bf816104f3565b81146107ca57600080fd5b50565b6000813590506107dc816107b6565b92915050565b60008060008060008060c087890312156107ff576107fe6105ec565b5b600087013567ffffffffffffffff81111561081d5761081c6105f1565b5b61082989828a01610788565b965050602087013567ffffffffffffffff81111561084a576108496105f1565b5b61085689828a01610788565b955050604061086789828a016107cd565b945050606061087889828a016107cd565b935050608061088989828a0161063f565b92505060a061089a89828a0161063f565b9150509295509295509295565b6108b081610616565b82525050565b60006020820190506108cb60008301846108a7565b92915050565b60006108e46108df84610706565b6106eb565b905082815260208101848484011115610900576108ff610686565b5b61090b848285610543565b509392505050565b600082601f83011261092857610927610681565b5b81516109388482602086016108d1565b91505092915050565b600060208284031215610957576109566105ec565b5b600082015167ffffffffffffffff811115610975576109746105f1565b5b61098184828501610913565b91505092915050565b6000819050919050565b60006109af6109aa6109a5846105f6565b61098a565b6105f6565b9050919050565b60006109c182610994565b9050919050565b60006109d3826109b6565b9050919050565b6109e3816109c8565b82525050565b6000819050919050565b600060ff82169050919050565b6000610a1b610a16610a11846109e9565b61098a565b6109f3565b9050919050565b610a2b81610a00565b82525050565b6000608082019050610a4660008301876109da565b610a536020830186610a22565b8181036040830152610a658185610587565b90508181036060830152610a798184610587565b905095945050505050565b600081519050919050565b600082825260208201905092915050565b6000610aab82610a84565b610ab58185610a8f565b9350610ac5818560208601610543565b610ace81610576565b840191505092915050565b6000606082019050610aee60008301866108a7565b610afb60208301856104fd565b8181036040830152610b0d8184610aa0565b905094935050505056fea26469706673582212202f21ef7452b3b92aafd0ba6300c4aa71237dd11a8cb0383d4006dee96dc891a464736f6c634300080b0033",
  "immutableReferences": {},
  "source": "// SPDX-License-Identifier: AGPLv3\npragma solidity ^0.8.0;\n\nimport {UUPSProxy} from \"./utils/UUPSProxy.sol\";\nimport {ISuperFractionalized} from \"./interfaces/ISuperFractionalized.sol\";\n\nimport {IERC721Metadata} from \"@openzeppelin/contracts/token/ERC721/extensions/IERC721Metadata.sol\";\nimport {IERC20} from \"@openzeppelin/contracts/token/ERC20/IERC20.sol\";\nimport {ISuperToken} from \"@superfluid-finance/ethereum-contracts/contracts/interfaces/superfluid/ISuperToken.sol\";\n\n/// @title Base contract for Super Fractional Tokens\n/// @author jtriley.eth\ncontract SuperFractionalized is UUPSProxy, ISuperFractionalized {\n\t/// @dev Pads first 32 storage slots for logic contract writes\n\tuint256[32] internal _storagePaddings;\n\n\t/// @dev Underlying token id\n\tuint256 public tokenId;\n\n\t/// @dev Underlying token address\n\taddress public tokenAddress;\n\n\t/// @dev Implementation of ISuperFractionalized.initialize\n\tfunction initialize(\n\t\tstring memory name,\n\t\tstring memory symbol,\n\t\tuint256 initalSupply,\n\t\tuint256 tokenId_,\n\t\taddress tokenAddress_,\n\t\taddress recipient\n\t) external override {\n\t\ttokenId = tokenId_;\n\t\ttokenAddress = tokenAddress_;\n\t\tISuperToken(address(this)).initialize(\n\t\t\tIERC20(address(0)),\n\t\t\t0,\n\t\t\tname,\n\t\t\tsymbol\n\t\t);\n\n\t\tISuperToken(address(this)).selfMint(\n\t\t\trecipient,\n\t\t\tinitalSupply,\n\t\t\tnew bytes(0)\n\t\t);\n\t}\n\n\t/// @dev Iplementation of ISuperFractionalized.tokenURI\n\tfunction tokenURI() public view returns (string memory _uri) {\n\t\treturn IERC721Metadata(tokenAddress).tokenURI(tokenId);\n\t}\n}\n",
  "sourcePath": "/home/rishabh/blockchain-fractionalnft/ethereum-contracts/contracts/SuperFractionalized.sol",
  "compiler": {
    "name": "solc",
    "version": "0.8.11+commit.d7f03943.Emscripten.clang"
  },
  "schemaVersion": "3.4.7",
  "updatedAt": "2022-05-31T15:35:08.172Z",
  "devdoc": {
    "author": "jtriley.eth",
    "kind": "dev",
    "methods": {
      "initialize(string,string,uint256,uint256,address,address)": {
        "details": "Implementation of ISuperFractionalized.initialize"
      },
      "initializeProxy(address)": {
        "details": "Called by the SuperTokenFactory contract on upgrade",
        "params": {
          "initialAddress": "logic contract address"
        }
      },
      "tokenURI()": {
        "details": "Iplementation of ISuperFractionalized.tokenURI"
      }
    },
    "stateVariables": {
      "_storagePaddings": {
        "details": "Pads first 32 storage slots for logic contract writes"
      },
      "tokenAddress": {
        "details": "Underlying token address"
      },
      "tokenId": {
        "details": "Underlying token id"
      }
    },
    "title": "Base contract for Super Fractional Tokens",
    "version": 1
  },
  "userdoc": {
    "errors": {
      "Initialized()": [
        {
          "notice": "Thrown when the logic contract has been set"
        }
      ],
      "ZeroAddress()": [
        {
          "notice": "Thrown when the logic contract address is zero"
        }
      ]
    },
    "kind": "user",
    "methods": {
      "initializeProxy(address)": {
        "notice": "Stores the logic contract address only once."
      }
    },
    "version": 1
  }
}