{
  "contractName": "UUPSProxy",
  "abi": [
    {
      "inputs": [],
      "name": "Initialized",
      "type": "error"
    },
    {
      "inputs": [],
      "name": "ZeroAddress",
      "type": "error"
    },
    {
      "stateMutability": "payable",
      "type": "fallback"
    },
    {
      "stateMutability": "payable",
      "type": "receive"
    },
    {
      "inputs": [
        {
          "internalType": "address",
          "name": "initialAddress",
          "type": "address"
        }
      ],
      "name": "initializeProxy",
      "outputs": [],
      "stateMutability": "nonpayable",
      "type": "function"
    }
  ],
  "bytecode": "0x608060405234801561001057600080fd5b5061028f806100206000396000f3fe6080604052600436106100225760003560e01c80634a0687ef1461003b57610031565b366100315761002f610064565b005b610039610064565b005b34801561004757600080fd5b50610062600480360381019061005d919061022c565b61007e565b005b61006c610178565b61007c61007761017a565b6101a3565b565b600073ffffffffffffffffffffffffffffffffffffffff168173ffffffffffffffffffffffffffffffffffffffff1614156100e5576040517fd92e233d00000000000000000000000000000000000000000000000000000000815260040160405180910390fd5b600073ffffffffffffffffffffffffffffffffffffffff1661010561017a565b73ffffffffffffffffffffffffffffffffffffffff1614610152576040517f5daa87a000000000000000000000000000000000000000000000000000000000815260040160405180910390fd5b807f360894a13ba1a3210667c828492db98dca3e2076cc3735a920a3ca505d382bbc5550565b565b60007f360894a13ba1a3210667c828492db98dca3e2076cc3735a920a3ca505d382bbc54905090565b3660008037600080366000845af43d6000803e80600081146101c4573d6000f35b3d6000fd5b600080fd5b600073ffffffffffffffffffffffffffffffffffffffff82169050919050565b60006101f9826101ce565b9050919050565b610209816101ee565b811461021457600080fd5b50565b60008135905061022681610200565b92915050565b600060208284031215610242576102416101c9565b5b600061025084828501610217565b9150509291505056fea2646970667358221220ac4d77f4961c87679e090dd5c8060d557b8aa0b3079a2fc854cd13203fe4872064736f6c634300080b0033",
  "immutableReferences": {},
  "source": "// SPDX-License-Identifier: AGPLv3\npragma solidity ^0.8.0;\n\nimport {Proxy} from \"@openzeppelin/contracts/proxy/Proxy.sol\";\n\n/// @title UUPS Proxy implementation contract\n/// @author jtriley.eth\n/// @notice Stores the logic contract's address at the _IMPLEMENTATION_SLOT\ncontract UUPSProxy is Proxy {\n\t/// @notice Thrown when the logic contract address is zero\n\terror ZeroAddress();\n\n\t/// @notice Thrown when the logic contract has been set\n\terror Initialized();\n\n\t/// @notice Precomputed from the following for gas savings\n\t/// bytes32(uint256(keccak256(\"eip1967.proxy.implementation\") - 1));\n\tbytes32 internal constant _IMPLEMENTATION_SLOT =\n\t\t0x360894a13ba1a3210667c828492db98dca3e2076cc3735a920a3ca505d382bbc;\n\n\t/// @notice Stores the logic contract address only once.\n\t/// @dev Called by the SuperTokenFactory contract on upgrade\n\t/// @param initialAddress logic contract address\n\tfunction initializeProxy(address initialAddress) external {\n\t\tif (initialAddress == address(0)) revert ZeroAddress();\n\t\tif (_implementation() != address(0)) revert Initialized();\n\t\tassembly {\n\t\t\tsstore(_IMPLEMENTATION_SLOT, initialAddress)\n\t\t}\n\t}\n\n\t/// @notice Reads logic contract from precomputed slot\n\t/// @return impl Logic contract address\n\tfunction _implementation()\n\t\tinternal\n\t\tview\n\t\tvirtual\n\t\toverride\n\t\treturns (address impl)\n\t{\n\t\tassembly {\n\t\t\timpl := sload(_IMPLEMENTATION_SLOT)\n\t\t}\n\t}\n}",
  "sourcePath": "/home/rishabh/blockchain-fractionalnft/ethereum-contracts/contracts/utils/UUPSProxy.sol",
  "compiler": {
    "name": "solc",
    "version": "0.8.11+commit.d7f03943.Emscripten.clang"
  },
  "schemaVersion": "3.4.7",
  "updatedAt": "2022-05-31T15:35:08.208Z",
  "devdoc": {
    "author": "jtriley.eth",
    "kind": "dev",
    "methods": {
      "initializeProxy(address)": {
        "details": "Called by the SuperTokenFactory contract on upgrade",
        "params": {
          "initialAddress": "logic contract address"
        }
      }
    },
    "title": "UUPS Proxy implementation contract",
    "version": 1
  },
  "userdoc": {
    "errors": {
      "Initialized()": [
        {
          "notice": "Thrown when the logic contract has been set"
        }
      ],
      "ZeroAddress()": [
        {
          "notice": "Thrown when the logic contract address is zero"
        }
      ]
    },
    "kind": "user",
    "methods": {
      "initializeProxy(address)": {
        "notice": "Stores the logic contract address only once."
      }
    },
    "notice": "Stores the logic contract's address at the _IMPLEMENTATION_SLOT",
    "version": 1
  }
}