{
  "contractName": "Fractional",
  "abi": [
    {
      "inputs": [
        {
          "internalType": "string",
          "name": "_name",
          "type": "string"
        },
        {
          "internalType": "string",
          "name": "_symbol",
          "type": "string"
        }
      ],
      "stateMutability": "nonpayable",
      "type": "constructor"
    },
    {
      "anonymous": false,
      "inputs": [
        {
          "indexed": true,
          "internalType": "address",
          "name": "owner",
          "type": "address"
        },
        {
          "indexed": true,
          "internalType": "address",
          "name": "approved",
          "type": "address"
        },
        {
          "indexed": true,
          "internalType": "uint256",
          "name": "tokenId",
          "type": "uint256"
        }
      ],
      "name": "Approval",
      "type": "event"
    },
    {
      "anonymous": false,
      "inputs": [
        {
          "indexed": true,
          "internalType": "address",
          "name": "owner",
          "type": "address"
        },
        {
          "indexed": true,
          "internalType": "address",
          "name": "operator",
          "type": "address"
        },
        {
          "indexed": false,
          "internalType": "bool",
          "name": "approved",
          "type": "bool"
        }
      ],
      "name": "ApprovalForAll",
      "type": "event"
    },
    {
      "anonymous": false,
      "inputs": [
        {
          "indexed": true,
          "internalType": "address",
          "name": "from",
          "type": "address"
        },
        {
          "indexed": true,
          "internalType": "address",
          "name": "to",
          "type": "address"
        },
        {
          "indexed": true,
          "internalType": "uint256",
          "name": "tokenId",
          "type": "uint256"
        }
      ],
      "name": "Transfer",
      "type": "event"
    },
    {
      "inputs": [
        {
          "internalType": "address",
          "name": "",
          "type": "address"
        }
      ],
      "name": "Track",
      "outputs": [
        {
          "internalType": "uint256",
          "name": "",
          "type": "uint256"
        }
      ],
      "stateMutability": "view",
      "type": "function",
      "constant": true
    },
    {
      "inputs": [
        {
          "internalType": "address",
          "name": "to",
          "type": "address"
        },
        {
          "internalType": "uint256",
          "name": "tokenId",
          "type": "uint256"
        }
      ],
      "name": "approve",
      "outputs": [],
      "stateMutability": "nonpayable",
      "type": "function"
    },
    {
      "inputs": [
        {
          "internalType": "address",
          "name": "owner",
          "type": "address"
        }
      ],
      "name": "balanceOf",
      "outputs": [
        {
          "internalType": "uint256",
          "name": "",
          "type": "uint256"
        }
      ],
      "stateMutability": "view",
      "type": "function",
      "constant": true
    },
    {
      "inputs": [
        {
          "internalType": "uint256",
          "name": "tokenId",
          "type": "uint256"
        }
      ],
      "name": "getApproved",
      "outputs": [
        {
          "internalType": "address",
          "name": "",
          "type": "address"
        }
      ],
      "stateMutability": "view",
      "type": "function",
      "constant": true
    },
    {
      "inputs": [
        {
          "internalType": "uint256",
          "name": "",
          "type": "uint256"
        }
      ],
      "name": "idToPrice",
      "outputs": [
        {
          "internalType": "uint256",
          "name": "",
          "type": "uint256"
        }
      ],
      "stateMutability": "view",
      "type": "function",
      "constant": true
    },
    {
      "inputs": [
        {
          "internalType": "uint256",
          "name": "",
          "type": "uint256"
        }
      ],
      "name": "idToShare",
      "outputs": [
        {
          "internalType": "contract ERC20",
          "name": "",
          "type": "address"
        }
      ],
      "stateMutability": "view",
      "type": "function",
      "constant": true
    },
    {
      "inputs": [
        {
          "internalType": "uint256",
          "name": "",
          "type": "uint256"
        }
      ],
      "name": "idToShareValue",
      "outputs": [
        {
          "internalType": "uint256",
          "name": "",
          "type": "uint256"
        }
      ],
      "stateMutability": "view",
      "type": "function",
      "constant": true
    },
    {
      "inputs": [
        {
          "internalType": "address",
          "name": "owner",
          "type": "address"
        },
        {
          "internalType": "address",
          "name": "operator",
          "type": "address"
        }
      ],
      "name": "isApprovedForAll",
      "outputs": [
        {
          "internalType": "bool",
          "name": "",
          "type": "bool"
        }
      ],
      "stateMutability": "view",
      "type": "function",
      "constant": true
    },
    {
      "inputs": [],
      "name": "name",
      "outputs": [
        {
          "internalType": "string",
          "name": "",
          "type": "string"
        }
      ],
      "stateMutability": "view",
      "type": "function",
      "constant": true
    },
    {
      "inputs": [
        {
          "internalType": "uint256",
          "name": "tokenId",
          "type": "uint256"
        }
      ],
      "name": "ownerOf",
      "outputs": [
        {
          "internalType": "address",
          "name": "",
          "type": "address"
        }
      ],
      "stateMutability": "view",
      "type": "function",
      "constant": true
    },
    {
      "inputs": [
        {
          "internalType": "address",
          "name": "from",
          "type": "address"
        },
        {
          "internalType": "address",
          "name": "to",
          "type": "address"
        },
        {
          "internalType": "uint256",
          "name": "tokenId",
          "type": "uint256"
        }
      ],
      "name": "safeTransferFrom",
      "outputs": [],
      "stateMutability": "nonpayable",
      "type": "function"
    },
    {
      "inputs": [
        {
          "internalType": "address",
          "name": "from",
          "type": "address"
        },
        {
          "internalType": "address",
          "name": "to",
          "type": "address"
        },
        {
          "internalType": "uint256",
          "name": "tokenId",
          "type": "uint256"
        },
        {
          "internalType": "bytes",
          "name": "_data",
          "type": "bytes"
        }
      ],
      "name": "safeTransferFrom",
      "outputs": [],
      "stateMutability": "nonpayable",
      "type": "function"
    },
    {
      "inputs": [
        {
          "internalType": "address",
          "name": "operator",
          "type": "address"
        },
        {
          "internalType": "bool",
          "name": "approved",
          "type": "bool"
        }
      ],
      "name": "setApprovalForAll",
      "outputs": [],
      "stateMutability": "nonpayable",
      "type": "function"
    },
    {
      "inputs": [
        {
          "internalType": "bytes4",
          "name": "interfaceId",
          "type": "bytes4"
        }
      ],
      "name": "supportsInterface",
      "outputs": [
        {
          "internalType": "bool",
          "name": "",
          "type": "bool"
        }
      ],
      "stateMutability": "view",
      "type": "function",
      "constant": true
    },
    {
      "inputs": [],
      "name": "symbol",
      "outputs": [
        {
          "internalType": "string",
          "name": "",
          "type": "string"
        }
      ],
      "stateMutability": "view",
      "type": "function",
      "constant": true
    },
    {
      "inputs": [
        {
          "internalType": "uint256",
          "name": "tokenId",
          "type": "uint256"
        }
      ],
      "name": "tokenURI",
      "outputs": [
        {
          "internalType": "string",
          "name": "",
          "type": "string"
        }
      ],
      "stateMutability": "view",
      "type": "function",
      "constant": true
    },
    {
      "inputs": [
        {
          "internalType": "address",
          "name": "from",
          "type": "address"
        },
        {
          "internalType": "address",
          "name": "to",
          "type": "address"
        },
        {
          "internalType": "uint256",
          "name": "tokenId",
          "type": "uint256"
        }
      ],
      "name": "transferFrom",
      "outputs": [],
      "stateMutability": "nonpayable",
      "type": "function"
    },
    {
      "inputs": [
        {
          "internalType": "string",
          "name": "_tokenURI",
          "type": "string"
        },
        {
          "internalType": "uint256",
          "name": "_price",
          "type": "uint256"
        }
      ],
      "name": "createNFT",
      "outputs": [],
      "stateMutability": "nonpayable",
      "type": "function"
    },
    {
      "inputs": [
        {
          "internalType": "uint256",
          "name": "_tokenID",
          "type": "uint256"
        },
        {
          "internalType": "string",
          "name": "_tokenURI",
          "type": "string"
        },
        {
          "internalType": "uint256",
          "name": "_sharesAmount",
          "type": "uint256"
        }
      ],
      "name": "lockNFT",
      "outputs": [],
      "stateMutability": "nonpayable",
      "type": "function"
    },
    {
      "inputs": [
        {
          "internalType": "uint256",
          "name": "_tokenID",
          "type": "uint256"
        },
        {
          "internalType": "uint256",
          "name": "_totalShares",
          "type": "uint256"
        }
      ],
      "name": "buyFractionalShares",
      "outputs": [],
      "stateMutability": "payable",
      "type": "function",
      "payable": true
    }
  ],
  "bytecode": "0x60a06040523480156200001157600080fd5b50604051620034d8380380620034d88339810160408190526200003491620001eb565b8181818181600090805190602001906200005092919062000078565b5080516200006690600190602084019062000078565b50503360805250620002919350505050565b828054620000869062000255565b90600052602060002090601f016020900481019282620000aa5760008555620000f5565b82601f10620000c557805160ff1916838001178555620000f5565b82800160010185558215620000f5579182015b82811115620000f5578251825591602001919060010190620000d8565b506200010392915062000107565b5090565b5b8082111562000103576000815560010162000108565b634e487b7160e01b600052604160045260246000fd5b600082601f8301126200014657600080fd5b81516001600160401b03808211156200016357620001636200011e565b604051601f8301601f19908116603f011681019082821181831017156200018e576200018e6200011e565b81604052838152602092508683858801011115620001ab57600080fd5b600091505b83821015620001cf5785820183015181830184015290820190620001b0565b83821115620001e15760008385830101525b9695505050505050565b60008060408385031215620001ff57600080fd5b82516001600160401b03808211156200021757600080fd5b620002258683870162000134565b935060208501519150808211156200023c57600080fd5b506200024b8582860162000134565b9150509250929050565b600181811c908216806200026a57607f821691505b6020821081036200028b57634e487b7160e01b600052602260045260246000fd5b50919050565b60805161322b620002ad60003960006108da015261322b6000f3fe608060405260043610620001375760003560e01c80636352211e11620000ad578063b88d4fde116200006c578063b88d4fde14620003a5578063c87b56dd14620003ca578063c89b023e14620003ef578063e985e9c51462000429578063f9c6a054146200047657600080fd5b80636352211e14620002f957806365b38184146200031e57806370a08231146200034357806395d89b411462000368578063a22cb465146200038057600080fd5b80631f0f5b1111620000fa5780631f0f5b11146200024257806323b872dd146200025957806326829155146200027e57806342842e0e14620002a357806344a39c2514620002c857600080fd5b806301ffc9a7146200013c57806306fdde031462000176578063081812fc146200019d578063095ea7b314620001db5780630a5974941462000202575b600080fd5b3480156200014957600080fd5b50620001616200015b366004620018ec565b620004a7565b60405190151581526020015b60405180910390f35b3480156200018357600080fd5b506200018e620004fb565b6040516200016d919062001969565b348015620001aa57600080fd5b50620001c2620001bc3660046200197e565b62000595565b6040516001600160a01b0390911681526020016200016d565b348015620001e857600080fd5b5062000200620001fa366004620019b5565b62000625565b005b3480156200020f57600080fd5b5062000233620002213660046200197e565b600b6020526000908152604090205481565b6040519081526020016200016d565b6200020062000253366004620019e2565b62000745565b3480156200026657600080fd5b50620002006200027836600462001a05565b620008a0565b3480156200028b57600080fd5b50620002006200029d36600462001afc565b620008d8565b348015620002b057600080fd5b5062000200620002c236600462001a05565b62000999565b348015620002d557600080fd5b5062000233620002e736600462001b45565b60086020526000908152604090205481565b3480156200030657600080fd5b50620001c2620003183660046200197e565b620009b6565b3480156200032b57600080fd5b50620002006200033d36600462001b63565b62000a2f565b3480156200035057600080fd5b50620002336200036236600462001b45565b62000bee565b3480156200037557600080fd5b506200018e62000c77565b3480156200038d57600080fd5b50620002006200039f36600462001bc6565b62000c88565b348015620003b257600080fd5b5062000200620003c436600462001c02565b62000c99565b348015620003d757600080fd5b506200018e620003e93660046200197e565b62000cd8565b348015620003fc57600080fd5b50620001c26200040e3660046200197e565b600c602052600090815260409020546001600160a01b031681565b3480156200043657600080fd5b50620001616200044836600462001c87565b6001600160a01b03918216600090815260056020908152604080832093909416825291909152205460ff1690565b3480156200048357600080fd5b5062000233620004953660046200197e565b600a6020526000908152604090205481565b60006001600160e01b031982166380ac58cd60e01b1480620004d957506001600160e01b03198216635b5e139f60e01b145b80620004f557506301ffc9a760e01b6001600160e01b03198316145b92915050565b6060600080546200050c9062001cbf565b80601f01602080910402602001604051908101604052809291908181526020018280546200053a9062001cbf565b80156200058b5780601f106200055f576101008083540402835291602001916200058b565b820191906000526020600020905b8154815290600101906020018083116200056d57829003601f168201915b5050505050905090565b6000620005a28262000e61565b620006095760405162461bcd60e51b815260206004820152602c60248201527f4552433732313a20617070726f76656420717565727920666f72206e6f6e657860448201526b34b9ba32b73a103a37b5b2b760a11b60648201526084015b60405180910390fd5b506000908152600460205260409020546001600160a01b031690565b60006200063282620009b6565b9050806001600160a01b0316836001600160a01b031603620006a15760405162461bcd60e51b815260206004820152602160248201527f4552433732313a20617070726f76616c20746f2063757272656e74206f776e656044820152603960f91b606482015260840162000600565b336001600160a01b0382161480620006c05750620006c0813362000448565b620007345760405162461bcd60e51b815260206004820152603860248201527f4552433732313a20617070726f76652063616c6c6572206973206e6f74206f7760448201527f6e6572206e6f7220617070726f76656420666f7220616c6c0000000000000000606482015260840162000600565b62000740838362000e7e565b505050565b6000828152600b602052604090205462000760908262000eee565b341015620007a65760405162461bcd60e51b8152602060048201526012602482015271496e73756666696369656e742066756e647360701b604482015260640162000600565b600082815260096020908152604080832054600b9092528220546001600160a01b039091169190620007d9908462000eee565b6040519091506001600160a01b0383169082156108fc029083906000818181858888f1935050505015801562000813573d6000803e3d6000fd5b506000848152600c60205260409081902054905163a9059cbb60e01b8152336004820152602481018590526001600160a01b039091169063a9059cbb906044016020604051808303816000875af115801562000873573d6000803e3d6000fd5b505050506040513d601f19601f8201168201806040525081019062000899919062001cfb565b5050505050565b620008ac338262000f03565b620008cb5760405162461bcd60e51b8152600401620006009062001d1b565b6200074083838362000ff6565b7f00000000000000000000000000000000000000000000000000000000000000006001600160a01b03163314620009465760405162461bcd60e51b815260206004820152601160248201527024b73b30b634b21037b832b930ba34b7b760791b604482015260640162000600565b60006200095433846200119e565b90506200096a82670de0b6b3a764000062001d82565b6000918252600a602090815260408084209290925560099052902080546001600160a01b031916331790555050565b620007408383836040518060200160405280600081525062000c99565b6000818152600260205260408120546001600160a01b031680620004f55760405162461bcd60e51b815260206004820152602960248201527f4552433732313a206f776e657220717565727920666f72206e6f6e657869737460448201526832b73a103a37b5b2b760b91b606482015260840162000600565b62000a3d33308585620011ef565b600062000a4a8462001231565b905060006040518060400160405280600b81526020016a119c9858dd1a5bdb93919560aa1b81525090506000818360405160200162000a8b92919062001da4565b60408051601f19818403018152828201825260048352631193919560e21b602084810191909152915190935060009162000aca91849188910162001da4565b6040516020818303038152906040529050600083828860405162000aee906200181e565b62000afc9392919062001dd7565b604051809103906000f08015801562000b19573d6000803e3d6000fd5b5060405163a9059cbb60e01b8152306004820152602481018990529091506001600160a01b0382169063a9059cbb906044016020604051808303816000875af115801562000b6b573d6000803e3d6000fd5b505050506040513d601f19601f8201168201806040525081019062000b91919062001cfb565b506000898152600c6020908152604080832080546001600160a01b0319166001600160a01b038616179055600a90915290205462000bd081896200134a565b60009a8b52600b6020526040909a2099909955505050505050505050565b60006001600160a01b03821662000c5b5760405162461bcd60e51b815260206004820152602a60248201527f4552433732313a2062616c616e636520717565727920666f7220746865207a65604482015269726f206164647265737360b01b606482015260840162000600565b506001600160a01b031660009081526003602052604090205490565b6060600180546200050c9062001cbf565b62000c9533838362001358565b5050565b62000ca5338362000f03565b62000cc45760405162461bcd60e51b8152600401620006009062001d1b565b62000cd28484848462001428565b50505050565b606062000ce58262000e61565b62000d4d5760405162461bcd60e51b815260206004820152603160248201527f45524337323155524953746f726167653a2055524920717565727920666f72206044820152703737b732bc34b9ba32b73a103a37b5b2b760791b606482015260840162000600565b6000828152600660205260408120805462000d689062001cbf565b80601f016020809104026020016040519081016040528092919081815260200182805462000d969062001cbf565b801562000de75780601f1062000dbb5761010080835404028352916020019162000de7565b820191906000526020600020905b81548152906001019060200180831162000dc957829003601f168201915b50505050509050600062000e0660408051602081019091526000815290565b9050805160000362000e19575092915050565b81511562000e4e57808260405160200162000e3692919062001da4565b60405160208183030381529060405292505050919050565b62000e598462001462565b949350505050565b6000908152600260205260409020546001600160a01b0316151590565b600081815260046020526040902080546001600160a01b0319166001600160a01b038416908117909155819062000eb582620009b6565b6001600160a01b03167f8c5be1e5ebec7d5bd14f71427d1e84f3dd0314c0f7b2291e5b200ac8c7c3b92560405160405180910390a45050565b600062000efc828462001d82565b9392505050565b600062000f108262000e61565b62000f735760405162461bcd60e51b815260206004820152602c60248201527f4552433732313a206f70657261746f7220717565727920666f72206e6f6e657860448201526b34b9ba32b73a103a37b5b2b760a11b606482015260840162000600565b600062000f8083620009b6565b9050806001600160a01b0316846001600160a01b0316148062000fc857506001600160a01b0380821660009081526005602090815260408083209388168352929052205460ff165b8062000e595750836001600160a01b031662000fe48462000595565b6001600160a01b031614949350505050565b826001600160a01b03166200100b82620009b6565b6001600160a01b031614620010715760405162461bcd60e51b815260206004820152602560248201527f4552433732313a207472616e736665722066726f6d20696e636f72726563742060448201526437bbb732b960d91b606482015260840162000600565b6001600160a01b038216620010d55760405162461bcd60e51b8152602060048201526024808201527f4552433732313a207472616e7366657220746f20746865207a65726f206164646044820152637265737360e01b606482015260840162000600565b620010e260008262000e7e565b6001600160a01b03831660009081526003602052604081208054600192906200110d90849062001e11565b90915550506001600160a01b03821660009081526003602052604081208054600192906200113d90849062001e2b565b909155505060008181526002602052604080822080546001600160a01b0319166001600160a01b0386811691821790925591518493918716917fddf252ad1be2c89b69c2b068fc378daa952ba7f163c4a11628f55a4df523b3ef91a4505050565b600080620011ab60075490565b9050620011b9848262001544565b620011c581846200167f565b6001600160a01b038416600090815260086020526040902081905562000efc600780546001019055565b620011fc84848462000ff6565b6200120882826200167f565b506001600160a01b03928316600090815260086020526040808220829055929093168352912055565b606081600003620012595750506040805180820190915260018152600360fc1b602082015290565b8160005b8115620012895780620012708162001e46565b9150620012819050600a8362001e78565b91506200125d565b60008167ffffffffffffffff811115620012a757620012a762001a46565b6040519080825280601f01601f191660200182016040528015620012d2576020820181803683370190505b5090505b841562000e5957620012ea60018362001e11565b9150620012f9600a8662001e8f565b6200130690603062001e2b565b60f81b8183815181106200131e576200131e62001ea6565b60200101906001600160f81b031916908160001a90535062001342600a8662001e78565b9450620012d6565b600062000efc828462001e78565b816001600160a01b0316836001600160a01b031603620013bb5760405162461bcd60e51b815260206004820152601960248201527f4552433732313a20617070726f766520746f2063616c6c657200000000000000604482015260640162000600565b6001600160a01b03838116600081815260056020908152604080832094871680845294825291829020805460ff191686151590811790915591519182527f17307eab39ab6107e8899845ad3d59bd9653f200f220920489ca2b5937696c31910160405180910390a3505050565b6200143584848462000ff6565b620014438484848462001710565b62000cd25760405162461bcd60e51b8152600401620006009062001ebc565b60606200146f8262000e61565b620014d55760405162461bcd60e51b815260206004820152602f60248201527f4552433732314d657461646174613a2055524920717565727920666f72206e6f60448201526e3732bc34b9ba32b73a103a37b5b2b760891b606482015260840162000600565b6000620014ed60408051602081019091526000815290565b905060008151116200150f576040518060200160405280600081525062000efc565b806200151b8462001231565b6040516020016200152e92919062001da4565b6040516020818303038152906040529392505050565b6001600160a01b0382166200159c5760405162461bcd60e51b815260206004820181905260248201527f4552433732313a206d696e7420746f20746865207a65726f2061646472657373604482015260640162000600565b620015a78162000e61565b15620015f65760405162461bcd60e51b815260206004820152601c60248201527f4552433732313a20746f6b656e20616c7265616479206d696e74656400000000604482015260640162000600565b6001600160a01b03821660009081526003602052604081208054600192906200162190849062001e2b565b909155505060008181526002602052604080822080546001600160a01b0319166001600160a01b03861690811790915590518392907fddf252ad1be2c89b69c2b068fc378daa952ba7f163c4a11628f55a4df523b3ef908290a45050565b6200168a8262000e61565b620016ef5760405162461bcd60e51b815260206004820152602e60248201527f45524337323155524953746f726167653a2055524920736574206f66206e6f6e60448201526d32bc34b9ba32b73a103a37b5b2b760911b606482015260840162000600565b6000828152600660209081526040909120825162000740928401906200182c565b60006001600160a01b0384163b156200181357604051630a85bd0160e11b81526001600160a01b0385169063150b7a02906200175790339089908890889060040162001f0e565b6020604051808303816000875af192505050801562001795575060408051601f3d908101601f19168201909252620017929181019062001f4d565b60015b620017f8573d808015620017c6576040519150601f19603f3d011682016040523d82523d6000602084013e620017cb565b606091505b508051600003620017f05760405162461bcd60e51b8152600401620006009062001ebc565b805181602001fd5b6001600160e01b031916630a85bd0160e11b14905062000e59565b506001949350505050565b6112888062001f6e83390190565b8280546200183a9062001cbf565b90600052602060002090601f0160209004810192826200185e5760008555620018a9565b82601f106200187957805160ff1916838001178555620018a9565b82800160010185558215620018a9579182015b82811115620018a95782518255916020019190600101906200188c565b50620018b7929150620018bb565b5090565b5b80821115620018b75760008155600101620018bc565b6001600160e01b031981168114620018e957600080fd5b50565b600060208284031215620018ff57600080fd5b813562000efc81620018d2565b60005b83811015620019295781810151838201526020016200190f565b8381111562000cd25750506000910152565b60008151808452620019558160208601602086016200190c565b601f01601f19169290920160200192915050565b60208152600062000efc60208301846200193b565b6000602082840312156200199157600080fd5b5035919050565b80356001600160a01b0381168114620019b057600080fd5b919050565b60008060408385031215620019c957600080fd5b620019d48362001998565b946020939093013593505050565b60008060408385031215620019f657600080fd5b50508035926020909101359150565b60008060006060848603121562001a1b57600080fd5b62001a268462001998565b925062001a366020850162001998565b9150604084013590509250925092565b634e487b7160e01b600052604160045260246000fd5b600067ffffffffffffffff8084111562001a7a5762001a7a62001a46565b604051601f8501601f19908116603f0116810190828211818310171562001aa55762001aa562001a46565b8160405280935085815286868601111562001abf57600080fd5b858560208301376000602087830101525050509392505050565b600082601f83011262001aeb57600080fd5b62000efc8383356020850162001a5c565b6000806040838503121562001b1057600080fd5b823567ffffffffffffffff81111562001b2857600080fd5b62001b368582860162001ad9565b95602094909401359450505050565b60006020828403121562001b5857600080fd5b62000efc8262001998565b60008060006060848603121562001b7957600080fd5b83359250602084013567ffffffffffffffff81111562001b9857600080fd5b62001ba68682870162001ad9565b925050604084013590509250925092565b8015158114620018e957600080fd5b6000806040838503121562001bda57600080fd5b62001be58362001998565b9150602083013562001bf78162001bb7565b809150509250929050565b6000806000806080858703121562001c1957600080fd5b62001c248562001998565b935062001c346020860162001998565b925060408501359150606085013567ffffffffffffffff81111562001c5857600080fd5b8501601f8101871362001c6a57600080fd5b62001c7b8782356020840162001a5c565b91505092959194509250565b6000806040838503121562001c9b57600080fd5b62001ca68362001998565b915062001cb66020840162001998565b90509250929050565b600181811c9082168062001cd457607f821691505b60208210810362001cf557634e487b7160e01b600052602260045260246000fd5b50919050565b60006020828403121562001d0e57600080fd5b815162000efc8162001bb7565b60208082526031908201527f4552433732313a207472616e736665722063616c6c6572206973206e6f74206f6040820152701ddb995c881b9bdc88185c1c1c9bdd9959607a1b606082015260800190565b634e487b7160e01b600052601160045260246000fd5b600081600019048311821515161562001d9f5762001d9f62001d6c565b500290565b6000835162001db88184602088016200190c565b83519083019062001dce8183602088016200190c565b01949350505050565b60608152600062001dec60608301866200193b565b828103602084015262001e0081866200193b565b915050826040830152949350505050565b60008282101562001e265762001e2662001d6c565b500390565b6000821982111562001e415762001e4162001d6c565b500190565b60006001820162001e5b5762001e5b62001d6c565b5060010190565b634e487b7160e01b600052601260045260246000fd5b60008262001e8a5762001e8a62001e62565b500490565b60008262001ea15762001ea162001e62565b500690565b634e487b7160e01b600052603260045260246000fd5b60208082526032908201527f4552433732313a207472616e7366657220746f206e6f6e20455243373231526560408201527131b2b4bb32b91034b6b83632b6b2b73a32b960711b606082015260800190565b6001600160a01b038581168252841660208201526040810183905260806060820181905260009062001f43908301846200193b565b9695505050505050565b60006020828403121562001f6057600080fd5b815162000efc81620018d256fe60806040526006805460ff191660121790553480156200001e57600080fd5b5060405162001288380380620012888339810160408190526200004191620003f3565b6200004c33620000b2565b82516200006190600490602086019062000280565b5081516200007790600590602085019062000280565b506006546000906200008e9060ff16600a62000579565b6200009a90836200058a565b9050620000a8338262000102565b5050505062000603565b600080546001600160a01b038381166001600160a01b0319831681178455604051919092169283917f8be0079c531659141344cd1fd0a4f28419497f9722a3daafe3b4186f6b6457e09190a35050565b6000546001600160a01b03163314620001625760405162461bcd60e51b815260206004820181905260248201527f4f776e61626c653a2063616c6c6572206973206e6f7420746865206f776e657260448201526064015b60405180910390fd5b6001600160a01b038216620001ba5760405162461bcd60e51b815260206004820152601f60248201527f45524332303a206d696e7420746f20746865207a65726f206164647265737300604482015260640162000159565b620001d6816003546200026960201b620006b01790919060201c565b6003556001600160a01b0382166000908152600160209081526040909120546200020b918390620006b062000269821b17901c565b6001600160a01b0383166000818152600160205260408082209390935591519091907fddf252ad1be2c89b69c2b068fc378daa952ba7f163c4a11628f55a4df523b3ef906200025d9085815260200190565b60405180910390a35050565b6000620002778284620005ac565b90505b92915050565b8280546200028e90620005c7565b90600052602060002090601f016020900481019282620002b25760008555620002fd565b82601f10620002cd57805160ff1916838001178555620002fd565b82800160010185558215620002fd579182015b82811115620002fd578251825591602001919060010190620002e0565b506200030b9291506200030f565b5090565b5b808211156200030b576000815560010162000310565b634e487b7160e01b600052604160045260246000fd5b600082601f8301126200034e57600080fd5b81516001600160401b03808211156200036b576200036b62000326565b604051601f8301601f19908116603f0116810190828211818310171562000396576200039662000326565b81604052838152602092508683858801011115620003b357600080fd5b600091505b83821015620003d75785820183015181830184015290820190620003b8565b83821115620003e95760008385830101525b9695505050505050565b6000806000606084860312156200040957600080fd5b83516001600160401b03808211156200042157600080fd5b6200042f878388016200033c565b945060208601519150808211156200044657600080fd5b5062000455868287016200033c565b925050604084015190509250925092565b634e487b7160e01b600052601160045260246000fd5b600181815b80851115620004bd578160001904821115620004a157620004a162000466565b80851615620004af57918102915b93841c939080029062000481565b509250929050565b600082620004d6575060016200027a565b81620004e5575060006200027a565b8160018114620004fe5760028114620005095762000529565b60019150506200027a565b60ff8411156200051d576200051d62000466565b50506001821b6200027a565b5060208310610133831016604e8410600b84101617156200054e575081810a6200027a565b6200055a83836200047c565b806000190482111562000571576200057162000466565b029392505050565b60006200027760ff841683620004c5565b6000816000190483118215151615620005a757620005a762000466565b500290565b60008219821115620005c257620005c262000466565b500190565b600181811c90821680620005dc57607f821691505b602082108103620005fd57634e487b7160e01b600052602260045260246000fd5b50919050565b610c7580620006136000396000f3fe608060405234801561001057600080fd5b50600436106100f55760003560e01c8063715018a6116100975780639dc29fac116100665780639dc29fac146101f9578063a9059cbb1461020c578063dd62ed3e1461021f578063f2fde38b1461025857600080fd5b8063715018a6146101b3578063893d20e8146101bb5780638da5cb5b146101e057806395d89b41146101f157600080fd5b806323b872dd116100d357806323b872dd1461014d578063313ce5671461016057806340c10f191461017557806370a082311461018a57600080fd5b806306fdde03146100fa578063095ea7b31461011857806318160ddd1461013b575b600080fd5b61010261026b565b60405161010f91906109f6565b60405180910390f35b61012b610126366004610a67565b6102fd565b604051901515815260200161010f565b6003545b60405190815260200161010f565b61012b61015b366004610a91565b610313565b60065460405160ff909116815260200161010f565b610188610183366004610a67565b61037c565b005b61013f610198366004610acd565b6001600160a01b031660009081526001602052604090205490565b610188610495565b6000546001600160a01b03165b6040516001600160a01b03909116815260200161010f565b6000546001600160a01b03166101c8565b6101026104cb565b610188610207366004610a67565b6104da565b61012b61021a366004610a67565b610608565b61013f61022d366004610ae8565b6001600160a01b03918216600090815260026020908152604080832093909416825291909152205490565b610188610266366004610acd565b610615565b60606004805461027a90610b1b565b80601f01602080910402602001604051908101604052809291908181526020018280546102a690610b1b565b80156102f35780601f106102c8576101008083540402835291602001916102f3565b820191906000526020600020905b8154815290600101906020018083116102d657829003601f168201915b5050505050905090565b600061030a3384846106c3565b50600192915050565b60006103208484846107e8565b610372843361036d85604051806060016040528060288152602001610c18602891396001600160a01b038a166000908152600260209081526040808320338452909152902054919061096e565b6106c3565b5060019392505050565b6000546001600160a01b031633146103af5760405162461bcd60e51b81526004016103a690610b55565b60405180910390fd5b6001600160a01b0382166104055760405162461bcd60e51b815260206004820152601f60248201527f45524332303a206d696e7420746f20746865207a65726f20616464726573730060448201526064016103a6565b60035461041290826106b0565b6003556001600160a01b03821660009081526001602052604090205461043890826106b0565b6001600160a01b0383166000818152600160205260408082209390935591519091907fddf252ad1be2c89b69c2b068fc378daa952ba7f163c4a11628f55a4df523b3ef906104899085815260200190565b60405180910390a35050565b6000546001600160a01b031633146104bf5760405162461bcd60e51b81526004016103a690610b55565b6104c9600061099a565b565b60606005805461027a90610b1b565b6000546001600160a01b031633146105045760405162461bcd60e51b81526004016103a690610b55565b6001600160a01b0382166105645760405162461bcd60e51b815260206004820152602160248201527f45524332303a206275726e2066726f6d20746865207a65726f206164647265736044820152607360f81b60648201526084016103a6565b6105a181604051806060016040528060228152602001610bd0602291396001600160a01b038516600090815260016020526040902054919061096e565b6001600160a01b0383166000908152600160205260409020556003546105c790826109ea565b6003556040518181526000906001600160a01b038416907fddf252ad1be2c89b69c2b068fc378daa952ba7f163c4a11628f55a4df523b3ef90602001610489565b600061030a3384846107e8565b6000546001600160a01b0316331461063f5760405162461bcd60e51b81526004016103a690610b55565b6001600160a01b0381166106a45760405162461bcd60e51b815260206004820152602660248201527f4f776e61626c653a206e6577206f776e657220697320746865207a65726f206160448201526564647265737360d01b60648201526084016103a6565b6106ad8161099a565b50565b60006106bc8284610ba0565b9392505050565b6001600160a01b0383166107255760405162461bcd60e51b8152602060048201526024808201527f45524332303a20617070726f76652066726f6d20746865207a65726f206164646044820152637265737360e01b60648201526084016103a6565b6001600160a01b0382166107865760405162461bcd60e51b815260206004820152602260248201527f45524332303a20617070726f766520746f20746865207a65726f206164647265604482015261737360f01b60648201526084016103a6565b6001600160a01b0383811660008181526002602090815260408083209487168084529482529182902085905590518481527f8c5be1e5ebec7d5bd14f71427d1e84f3dd0314c0f7b2291e5b200ac8c7c3b92591015b60405180910390a3505050565b6001600160a01b03831661084c5760405162461bcd60e51b815260206004820152602560248201527f45524332303a207472616e736665722066726f6d20746865207a65726f206164604482015264647265737360d81b60648201526084016103a6565b6001600160a01b0382166108ae5760405162461bcd60e51b815260206004820152602360248201527f45524332303a207472616e7366657220746f20746865207a65726f206164647260448201526265737360e81b60648201526084016103a6565b6108eb81604051806060016040528060268152602001610bf2602691396001600160a01b038616600090815260016020526040902054919061096e565b6001600160a01b03808516600090815260016020526040808220939093559084168152205461091a90826106b0565b6001600160a01b0380841660008181526001602052604090819020939093559151908516907fddf252ad1be2c89b69c2b068fc378daa952ba7f163c4a11628f55a4df523b3ef906107db9085815260200190565b600081848411156109925760405162461bcd60e51b81526004016103a691906109f6565b505050900390565b600080546001600160a01b038381166001600160a01b0319831681178455604051919092169283917f8be0079c531659141344cd1fd0a4f28419497f9722a3daafe3b4186f6b6457e09190a35050565b60006106bc8284610bb8565b600060208083528351808285015260005b81811015610a2357858101830151858201604001528201610a07565b81811115610a35576000604083870101525b50601f01601f1916929092016040019392505050565b80356001600160a01b0381168114610a6257600080fd5b919050565b60008060408385031215610a7a57600080fd5b610a8383610a4b565b946020939093013593505050565b600080600060608486031215610aa657600080fd5b610aaf84610a4b565b9250610abd60208501610a4b565b9150604084013590509250925092565b600060208284031215610adf57600080fd5b6106bc82610a4b565b60008060408385031215610afb57600080fd5b610b0483610a4b565b9150610b1260208401610a4b565b90509250929050565b600181811c90821680610b2f57607f821691505b602082108103610b4f57634e487b7160e01b600052602260045260246000fd5b50919050565b6020808252818101527f4f776e61626c653a2063616c6c6572206973206e6f7420746865206f776e6572604082015260600190565b634e487b7160e01b600052601160045260246000fd5b60008219821115610bb357610bb3610b8a565b500190565b600082821015610bca57610bca610b8a565b50039056fe45524332303a206275726e20616d6f756e7420657863656564732062616c616e636545524332303a207472616e7366657220616d6f756e7420657863656564732062616c616e636545524332303a207472616e7366657220616d6f756e74206578636565647320616c6c6f77616e6365a264697066735822122005027990638784f573606f1aeb76172d657a45a0413592cb32364bdc0f3cb38864736f6c634300080d0033a2646970667358221220248d0e41a6e99f177218b9b7c74f54b7f30b68c3837add3e696cd90358f6bb0964736f6c634300080d0033",
  "immutableReferences": {
    "2733": [
      {
        "length": 32,
        "start": 2266
      }
    ]
  },
  "source": "// SPDX-License-Identifier: MIT\npragma solidity ^0.8.4;\n\nimport \"@openzeppelin/contracts/token/ERC721/extensions/ERC721URIStorage.sol\";\nimport \"@openzeppelin/contracts/utils/Counters.sol\";\nimport \"@openzeppelin/contracts/utils/Strings.sol\";\nimport \"@openzeppelin/contracts/utils/math/SafeMath.sol\";\n\nimport \"./ERC20.sol\";\n\ncontract FractionNFT is ERC721URIStorage {\n    using Counters for Counters.Counter;\n    Counters.Counter private _tokenIds;\n\n    mapping(address => uint256) public Track;\n\n    constructor(string memory _name, string memory _symbol)\n        ERC721(_name, _symbol)\n    {}\n\n    function _create(address receiver, string memory _tokenURI)\n        internal\n        returns (uint256)\n    {\n        uint256 newItemId = _tokenIds.current();\n        _mint(receiver, newItemId);\n        _setTokenURI(newItemId, _tokenURI);\n        Track[receiver] = newItemId;\n\n        _tokenIds.increment();\n        return newItemId;\n    }\n\n    function _transferNFT(\n        address _sender,\n        address _receiver,\n        uint256 _tokenId,\n        string memory _tokenURI\n    ) internal {\n        _transfer(_sender, _receiver, _tokenId);\n        _setTokenURI(_tokenId, _tokenURI);\n\n        // update mappings\n        delete Track[_sender];\n        Track[_receiver] = _tokenId;\n    }\n}\n\ncontract Fractional is FractionNFT {\n    using SafeMath for uint256;\n    address immutable _platformAdmin;\n\n    // NFT ID => owner\n    mapping(uint256 => address payable) idToOwner;\n    // NFT ID => Price\n    mapping(uint256 => uint256) public idToPrice;\n    // NFT ID => share value\n    mapping(uint256 => uint256) public idToShareValue;\n    // NFT id => ERC20 share\n    mapping(uint256 => ERC20) public idToShare;\n\n    constructor(string memory _name, string memory _symbol)\n        FractionNFT(_name, _symbol)\n    {\n        _platformAdmin = msg.sender;\n    }\n\n    modifier onlyPlatformAdmin() {\n        require(_platformAdmin == msg.sender, \"Invalid operation\");\n        _;\n    }\n\n    // create NFT from fractional contract\n    function createNFT(string memory _tokenURI, uint256 _price) onlyPlatformAdmin public {\n        // create NFT\n        uint256 _tokenID = _create(msg.sender, _tokenURI);\n\n        // update mapping\n        idToPrice[_tokenID] = _price * 1e18;\n        idToOwner[_tokenID] = payable(msg.sender);\n    }\n\n    // lock NFT in fractional contract\n    function lockNFT(\n        uint256 _tokenID,\n        string memory _tokenURI,\n        uint256 _sharesAmount\n    ) public {\n        // transfer NFT to contract\n        _transferNFT(msg.sender, address(this), _tokenID, _tokenURI);\n\n        // mint & transfer ERC20 to contract\n        // set name of new token\n        string memory tokenID = Strings.toString(_tokenID);\n        string memory _tokenName = \"FractionNFT\";\n        string memory tokenName = string(abi.encodePacked(_tokenName, tokenID));\n\n        // set symbol of new token\n        string memory _tokenSymbol = \"FNFT\";\n        string memory tokenSymbol = string(\n            abi.encodePacked(_tokenSymbol, tokenID)\n        );\n\n        // create new token\n        ERC20 fToken = new ERC20(tokenName, tokenSymbol, _sharesAmount);\n\n        // transfer tokens to this contract address\n        fToken.transfer(address(this), _sharesAmount);\n        // update mapping\n        idToShare[_tokenID] = fToken;\n\n        // update share value\n        uint256 _price = idToPrice[_tokenID];\n        idToShareValue[_tokenID] = _price.div(_sharesAmount);\n    }\n\n    // function for user to buy shares of NFT and hold ERC20 as validation token of the purchase\n    function buyFractionalShares(uint256 _tokenID, uint256 _totalShares)\n        public\n        payable\n    {\n        require(\n            msg.value >= idToShareValue[_tokenID].mul(_totalShares),\n            \"Insufficient funds\"\n        );\n\n        // user sends ETH to owner\n        address payable nftOwner = idToOwner[_tokenID];\n        uint256 _amount = idToShareValue[_tokenID].mul(_totalShares);\n        nftOwner.transfer(_amount);\n\n        idToShare[_tokenID].transfer(msg.sender, _totalShares);\n    }\n}\n",
  "sourcePath": "/home/dhruv/Desktop/projects/dapps/09 - fractionalNFT/contracts/Fractional.sol",
  "compiler": {
    "name": "solc",
    "version": "0.8.13+commit.abaa5c0e.Emscripten.clang"
  },
  "schemaVersion": "3.4.7",
  "updatedAt": "2022-06-27T04:34:51.754Z",
  "networkType": "ethereum",
  "devdoc": {
    "kind": "dev",
    "methods": {
      "approve(address,uint256)": {
        "details": "See {IERC721-approve}."
      },
      "balanceOf(address)": {
        "details": "See {IERC721-balanceOf}."
      },
      "getApproved(uint256)": {
        "details": "See {IERC721-getApproved}."
      },
      "isApprovedForAll(address,address)": {
        "details": "See {IERC721-isApprovedForAll}."
      },
      "name()": {
        "details": "See {IERC721Metadata-name}."
      },
      "ownerOf(uint256)": {
        "details": "See {IERC721-ownerOf}."
      },
      "safeTransferFrom(address,address,uint256)": {
        "details": "See {IERC721-safeTransferFrom}."
      },
      "safeTransferFrom(address,address,uint256,bytes)": {
        "details": "See {IERC721-safeTransferFrom}."
      },
      "setApprovalForAll(address,bool)": {
        "details": "See {IERC721-setApprovalForAll}."
      },
      "supportsInterface(bytes4)": {
        "details": "See {IERC165-supportsInterface}."
      },
      "symbol()": {
        "details": "See {IERC721Metadata-symbol}."
      },
      "tokenURI(uint256)": {
        "details": "See {IERC721Metadata-tokenURI}."
      },
      "transferFrom(address,address,uint256)": {
        "details": "See {IERC721-transferFrom}."
      }
    },
    "version": 1
  },
  "userdoc": {
    "kind": "user",
    "methods": {},
    "version": 1
  }
}