{
  "contractName": "FractionNFT",
  "abi": [
    {
      "inputs": [
        {
          "internalType": "string",
          "name": "_name",
          "type": "string"
        },
        {
          "internalType": "string",
          "name": "_symbol",
          "type": "string"
        }
      ],
      "stateMutability": "nonpayable",
      "type": "constructor"
    },
    {
      "anonymous": false,
      "inputs": [
        {
          "indexed": true,
          "internalType": "address",
          "name": "owner",
          "type": "address"
        },
        {
          "indexed": true,
          "internalType": "address",
          "name": "approved",
          "type": "address"
        },
        {
          "indexed": true,
          "internalType": "uint256",
          "name": "tokenId",
          "type": "uint256"
        }
      ],
      "name": "Approval",
      "type": "event"
    },
    {
      "anonymous": false,
      "inputs": [
        {
          "indexed": true,
          "internalType": "address",
          "name": "owner",
          "type": "address"
        },
        {
          "indexed": true,
          "internalType": "address",
          "name": "operator",
          "type": "address"
        },
        {
          "indexed": false,
          "internalType": "bool",
          "name": "approved",
          "type": "bool"
        }
      ],
      "name": "ApprovalForAll",
      "type": "event"
    },
    {
      "anonymous": false,
      "inputs": [
        {
          "indexed": true,
          "internalType": "address",
          "name": "from",
          "type": "address"
        },
        {
          "indexed": true,
          "internalType": "address",
          "name": "to",
          "type": "address"
        },
        {
          "indexed": true,
          "internalType": "uint256",
          "name": "tokenId",
          "type": "uint256"
        }
      ],
      "name": "Transfer",
      "type": "event"
    },
    {
      "inputs": [
        {
          "internalType": "address",
          "name": "",
          "type": "address"
        }
      ],
      "name": "Track",
      "outputs": [
        {
          "internalType": "uint256",
          "name": "",
          "type": "uint256"
        }
      ],
      "stateMutability": "view",
      "type": "function"
    },
    {
      "inputs": [
        {
          "internalType": "address",
          "name": "to",
          "type": "address"
        },
        {
          "internalType": "uint256",
          "name": "tokenId",
          "type": "uint256"
        }
      ],
      "name": "approve",
      "outputs": [],
      "stateMutability": "nonpayable",
      "type": "function"
    },
    {
      "inputs": [
        {
          "internalType": "address",
          "name": "owner",
          "type": "address"
        }
      ],
      "name": "balanceOf",
      "outputs": [
        {
          "internalType": "uint256",
          "name": "",
          "type": "uint256"
        }
      ],
      "stateMutability": "view",
      "type": "function"
    },
    {
      "inputs": [
        {
          "internalType": "uint256",
          "name": "tokenId",
          "type": "uint256"
        }
      ],
      "name": "getApproved",
      "outputs": [
        {
          "internalType": "address",
          "name": "",
          "type": "address"
        }
      ],
      "stateMutability": "view",
      "type": "function"
    },
    {
      "inputs": [
        {
          "internalType": "address",
          "name": "owner",
          "type": "address"
        },
        {
          "internalType": "address",
          "name": "operator",
          "type": "address"
        }
      ],
      "name": "isApprovedForAll",
      "outputs": [
        {
          "internalType": "bool",
          "name": "",
          "type": "bool"
        }
      ],
      "stateMutability": "view",
      "type": "function"
    },
    {
      "inputs": [],
      "name": "name",
      "outputs": [
        {
          "internalType": "string",
          "name": "",
          "type": "string"
        }
      ],
      "stateMutability": "view",
      "type": "function"
    },
    {
      "inputs": [
        {
          "internalType": "uint256",
          "name": "tokenId",
          "type": "uint256"
        }
      ],
      "name": "ownerOf",
      "outputs": [
        {
          "internalType": "address",
          "name": "",
          "type": "address"
        }
      ],
      "stateMutability": "view",
      "type": "function"
    },
    {
      "inputs": [
        {
          "internalType": "address",
          "name": "from",
          "type": "address"
        },
        {
          "internalType": "address",
          "name": "to",
          "type": "address"
        },
        {
          "internalType": "uint256",
          "name": "tokenId",
          "type": "uint256"
        }
      ],
      "name": "safeTransferFrom",
      "outputs": [],
      "stateMutability": "nonpayable",
      "type": "function"
    },
    {
      "inputs": [
        {
          "internalType": "address",
          "name": "from",
          "type": "address"
        },
        {
          "internalType": "address",
          "name": "to",
          "type": "address"
        },
        {
          "internalType": "uint256",
          "name": "tokenId",
          "type": "uint256"
        },
        {
          "internalType": "bytes",
          "name": "_data",
          "type": "bytes"
        }
      ],
      "name": "safeTransferFrom",
      "outputs": [],
      "stateMutability": "nonpayable",
      "type": "function"
    },
    {
      "inputs": [
        {
          "internalType": "address",
          "name": "operator",
          "type": "address"
        },
        {
          "internalType": "bool",
          "name": "approved",
          "type": "bool"
        }
      ],
      "name": "setApprovalForAll",
      "outputs": [],
      "stateMutability": "nonpayable",
      "type": "function"
    },
    {
      "inputs": [
        {
          "internalType": "bytes4",
          "name": "interfaceId",
          "type": "bytes4"
        }
      ],
      "name": "supportsInterface",
      "outputs": [
        {
          "internalType": "bool",
          "name": "",
          "type": "bool"
        }
      ],
      "stateMutability": "view",
      "type": "function"
    },
    {
      "inputs": [],
      "name": "symbol",
      "outputs": [
        {
          "internalType": "string",
          "name": "",
          "type": "string"
        }
      ],
      "stateMutability": "view",
      "type": "function"
    },
    {
      "inputs": [
        {
          "internalType": "uint256",
          "name": "tokenId",
          "type": "uint256"
        }
      ],
      "name": "tokenURI",
      "outputs": [
        {
          "internalType": "string",
          "name": "",
          "type": "string"
        }
      ],
      "stateMutability": "view",
      "type": "function"
    },
    {
      "inputs": [
        {
          "internalType": "address",
          "name": "from",
          "type": "address"
        },
        {
          "internalType": "address",
          "name": "to",
          "type": "address"
        },
        {
          "internalType": "uint256",
          "name": "tokenId",
          "type": "uint256"
        }
      ],
      "name": "transferFrom",
      "outputs": [],
      "stateMutability": "nonpayable",
      "type": "function"
    }
  ],
  "bytecode": "0x60806040523480156200001157600080fd5b50604051620016a4380380620016a48339810160408190526200003491620001e1565b8151829082906200004d9060009060208501906200006e565b508051620000639060019060208401906200006e565b505050505062000287565b8280546200007c906200024b565b90600052602060002090601f016020900481019282620000a05760008555620000eb565b82601f10620000bb57805160ff1916838001178555620000eb565b82800160010185558215620000eb579182015b82811115620000eb578251825591602001919060010190620000ce565b50620000f9929150620000fd565b5090565b5b80821115620000f95760008155600101620000fe565b634e487b7160e01b600052604160045260246000fd5b600082601f8301126200013c57600080fd5b81516001600160401b038082111562000159576200015962000114565b604051601f8301601f19908116603f0116810190828211818310171562000184576200018462000114565b81604052838152602092508683858801011115620001a157600080fd5b600091505b83821015620001c55785820183015181830184015290820190620001a6565b83821115620001d75760008385830101525b9695505050505050565b60008060408385031215620001f557600080fd5b82516001600160401b03808211156200020d57600080fd5b6200021b868387016200012a565b935060208501519150808211156200023257600080fd5b5062000241858286016200012a565b9150509250929050565b600181811c908216806200026057607f821691505b6020821081036200028157634e487b7160e01b600052602260045260246000fd5b50919050565b61140d80620002976000396000f3fe608060405234801561001057600080fd5b50600436106100ea5760003560e01c80636352211e1161008c578063a22cb46511610066578063a22cb465146101ee578063b88d4fde14610201578063c87b56dd14610214578063e985e9c51461022757600080fd5b80636352211e146101c057806370a08231146101d357806395d89b41146101e657600080fd5b8063095ea7b3116100c8578063095ea7b31461015757806323b872dd1461016c57806342842e0e1461017f57806344a39c251461019257600080fd5b806301ffc9a7146100ef57806306fdde0314610117578063081812fc1461012c575b600080fd5b6101026100fd366004610f20565b610263565b60405190151581526020015b60405180910390f35b61011f6102b5565b60405161010e9190610f95565b61013f61013a366004610fa8565b610347565b6040516001600160a01b03909116815260200161010e565b61016a610165366004610fdd565b6103e1565b005b61016a61017a366004611007565b6104f6565b61016a61018d366004611007565b610527565b6101b26101a0366004611043565b60086020526000908152604090205481565b60405190815260200161010e565b61013f6101ce366004610fa8565b610542565b6101b26101e1366004611043565b6105b9565b61011f610640565b61016a6101fc36600461105e565b61064f565b61016a61020f3660046110b0565b61065e565b61011f610222366004610fa8565b610696565b61010261023536600461118c565b6001600160a01b03918216600090815260056020908152604080832093909416825291909152205460ff1690565b60006001600160e01b031982166380ac58cd60e01b148061029457506001600160e01b03198216635b5e139f60e01b145b806102af57506301ffc9a760e01b6001600160e01b03198316145b92915050565b6060600080546102c4906111bf565b80601f01602080910402602001604051908101604052809291908181526020018280546102f0906111bf565b801561033d5780601f106103125761010080835404028352916020019161033d565b820191906000526020600020905b81548152906001019060200180831161032057829003601f168201915b5050505050905090565b6000818152600260205260408120546001600160a01b03166103c55760405162461bcd60e51b815260206004820152602c60248201527f4552433732313a20617070726f76656420717565727920666f72206e6f6e657860448201526b34b9ba32b73a103a37b5b2b760a11b60648201526084015b60405180910390fd5b506000908152600460205260409020546001600160a01b031690565b60006103ec82610542565b9050806001600160a01b0316836001600160a01b0316036104595760405162461bcd60e51b815260206004820152602160248201527f4552433732313a20617070726f76616c20746f2063757272656e74206f776e656044820152603960f91b60648201526084016103bc565b336001600160a01b038216148061047557506104758133610235565b6104e75760405162461bcd60e51b815260206004820152603860248201527f4552433732313a20617070726f76652063616c6c6572206973206e6f74206f7760448201527f6e6572206e6f7220617070726f76656420666f7220616c6c000000000000000060648201526084016103bc565b6104f1838361081c565b505050565b610500338261088a565b61051c5760405162461bcd60e51b81526004016103bc906111f9565b6104f1838383610980565b6104f18383836040518060200160405280600081525061065e565b6000818152600260205260408120546001600160a01b0316806102af5760405162461bcd60e51b815260206004820152602960248201527f4552433732313a206f776e657220717565727920666f72206e6f6e657869737460448201526832b73a103a37b5b2b760b91b60648201526084016103bc565b60006001600160a01b0382166106245760405162461bcd60e51b815260206004820152602a60248201527f4552433732313a2062616c616e636520717565727920666f7220746865207a65604482015269726f206164647265737360b01b60648201526084016103bc565b506001600160a01b031660009081526003602052604090205490565b6060600180546102c4906111bf565b61065a338383610b1c565b5050565b610668338361088a565b6106845760405162461bcd60e51b81526004016103bc906111f9565b61069084848484610bea565b50505050565b6000818152600260205260409020546060906001600160a01b03166107175760405162461bcd60e51b815260206004820152603160248201527f45524337323155524953746f726167653a2055524920717565727920666f72206044820152703737b732bc34b9ba32b73a103a37b5b2b760791b60648201526084016103bc565b60008281526006602052604081208054610730906111bf565b80601f016020809104026020016040519081016040528092919081815260200182805461075c906111bf565b80156107a95780601f1061077e576101008083540402835291602001916107a9565b820191906000526020600020905b81548152906001019060200180831161078c57829003601f168201915b5050505050905060006107c760408051602081019091526000815290565b905080516000036107d9575092915050565b81511561080b5780826040516020016107f392919061124a565b60405160208183030381529060405292505050919050565b61081484610c1d565b949350505050565b600081815260046020526040902080546001600160a01b0319166001600160a01b038416908117909155819061085182610542565b6001600160a01b03167f8c5be1e5ebec7d5bd14f71427d1e84f3dd0314c0f7b2291e5b200ac8c7c3b92560405160405180910390a45050565b6000818152600260205260408120546001600160a01b03166109035760405162461bcd60e51b815260206004820152602c60248201527f4552433732313a206f70657261746f7220717565727920666f72206e6f6e657860448201526b34b9ba32b73a103a37b5b2b760a11b60648201526084016103bc565b600061090e83610542565b9050806001600160a01b0316846001600160a01b0316148061095557506001600160a01b0380821660009081526005602090815260408083209388168352929052205460ff165b806108145750836001600160a01b031661096e84610347565b6001600160a01b031614949350505050565b826001600160a01b031661099382610542565b6001600160a01b0316146109f75760405162461bcd60e51b815260206004820152602560248201527f4552433732313a207472616e736665722066726f6d20696e636f72726563742060448201526437bbb732b960d91b60648201526084016103bc565b6001600160a01b038216610a595760405162461bcd60e51b8152602060048201526024808201527f4552433732313a207472616e7366657220746f20746865207a65726f206164646044820152637265737360e01b60648201526084016103bc565b610a6460008261081c565b6001600160a01b0383166000908152600360205260408120805460019290610a8d90849061128f565b90915550506001600160a01b0382166000908152600360205260408120805460019290610abb9084906112a6565b909155505060008181526002602052604080822080546001600160a01b0319166001600160a01b0386811691821790925591518493918716917fddf252ad1be2c89b69c2b068fc378daa952ba7f163c4a11628f55a4df523b3ef91a4505050565b816001600160a01b0316836001600160a01b031603610b7d5760405162461bcd60e51b815260206004820152601960248201527f4552433732313a20617070726f766520746f2063616c6c65720000000000000060448201526064016103bc565b6001600160a01b03838116600081815260056020908152604080832094871680845294825291829020805460ff191686151590811790915591519182527f17307eab39ab6107e8899845ad3d59bd9653f200f220920489ca2b5937696c31910160405180910390a3505050565b610bf5848484610980565b610c0184848484610d05565b6106905760405162461bcd60e51b81526004016103bc906112be565b6000818152600260205260409020546060906001600160a01b0316610c9c5760405162461bcd60e51b815260206004820152602f60248201527f4552433732314d657461646174613a2055524920717565727920666f72206e6f60448201526e3732bc34b9ba32b73a103a37b5b2b760891b60648201526084016103bc565b6000610cb360408051602081019091526000815290565b90506000815111610cd35760405180602001604052806000815250610cfe565b80610cdd84610e06565b604051602001610cee92919061124a565b6040516020818303038152906040525b9392505050565b60006001600160a01b0384163b15610dfb57604051630a85bd0160e11b81526001600160a01b0385169063150b7a0290610d49903390899088908890600401611310565b6020604051808303816000875af1925050508015610d84575060408051601f3d908101601f19168201909252610d819181019061134d565b60015b610de1573d808015610db2576040519150601f19603f3d011682016040523d82523d6000602084013e610db7565b606091505b508051600003610dd95760405162461bcd60e51b81526004016103bc906112be565b805181602001fd5b6001600160e01b031916630a85bd0160e11b149050610814565b506001949350505050565b606081600003610e2d5750506040805180820190915260018152600360fc1b602082015290565b8160005b8115610e575780610e418161136a565b9150610e509050600a83611399565b9150610e31565b60008167ffffffffffffffff811115610e7257610e7261109a565b6040519080825280601f01601f191660200182016040528015610e9c576020820181803683370190505b5090505b841561081457610eb160018361128f565b9150610ebe600a866113ad565b610ec99060306112a6565b60f81b818381518110610ede57610ede6113c1565b60200101906001600160f81b031916908160001a905350610f00600a86611399565b9450610ea0565b6001600160e01b031981168114610f1d57600080fd5b50565b600060208284031215610f3257600080fd5b8135610cfe81610f07565b60005b83811015610f58578181015183820152602001610f40565b838111156106905750506000910152565b60008151808452610f81816020860160208601610f3d565b601f01601f19169290920160200192915050565b602081526000610cfe6020830184610f69565b600060208284031215610fba57600080fd5b5035919050565b80356001600160a01b0381168114610fd857600080fd5b919050565b60008060408385031215610ff057600080fd5b610ff983610fc1565b946020939093013593505050565b60008060006060848603121561101c57600080fd5b61102584610fc1565b925061103360208501610fc1565b9150604084013590509250925092565b60006020828403121561105557600080fd5b610cfe82610fc1565b6000806040838503121561107157600080fd5b61107a83610fc1565b91506020830135801515811461108f57600080fd5b809150509250929050565b634e487b7160e01b600052604160045260246000fd5b600080600080608085870312156110c657600080fd5b6110cf85610fc1565b93506110dd60208601610fc1565b925060408501359150606085013567ffffffffffffffff8082111561110157600080fd5b818701915087601f83011261111557600080fd5b8135818111156111275761112761109a565b604051601f8201601f19908116603f0116810190838211818310171561114f5761114f61109a565b816040528281528a602084870101111561116857600080fd5b82602086016020830137600060208483010152809550505050505092959194509250565b6000806040838503121561119f57600080fd5b6111a883610fc1565b91506111b660208401610fc1565b90509250929050565b600181811c908216806111d357607f821691505b6020821081036111f357634e487b7160e01b600052602260045260246000fd5b50919050565b60208082526031908201527f4552433732313a207472616e736665722063616c6c6572206973206e6f74206f6040820152701ddb995c881b9bdc88185c1c1c9bdd9959607a1b606082015260800190565b6000835161125c818460208801610f3d565b835190830190611270818360208801610f3d565b01949350505050565b634e487b7160e01b600052601160045260246000fd5b6000828210156112a1576112a1611279565b500390565b600082198211156112b9576112b9611279565b500190565b60208082526032908201527f4552433732313a207472616e7366657220746f206e6f6e20455243373231526560408201527131b2b4bb32b91034b6b83632b6b2b73a32b960711b606082015260800190565b6001600160a01b038581168252841660208201526040810183905260806060820181905260009061134390830184610f69565b9695505050505050565b60006020828403121561135f57600080fd5b8151610cfe81610f07565b60006001820161137c5761137c611279565b5060010190565b634e487b7160e01b600052601260045260246000fd5b6000826113a8576113a8611383565b500490565b6000826113bc576113bc611383565b500690565b634e487b7160e01b600052603260045260246000fdfea2646970667358221220eeb80302fb5524161237547286bad77184ec2ba12e686b3976b967d72b2900b964736f6c634300080d0033",
  "immutableReferences": {},
  "source": "// SPDX-License-Identifier: MIT\npragma solidity ^0.8.4;\n\nimport \"@openzeppelin/contracts/token/ERC721/extensions/ERC721URIStorage.sol\";\nimport \"@openzeppelin/contracts/utils/Counters.sol\";\nimport \"@openzeppelin/contracts/utils/Strings.sol\";\nimport \"@openzeppelin/contracts/utils/math/SafeMath.sol\";\n\nimport \"./ERC20.sol\";\n\ncontract FractionNFT is ERC721URIStorage {\n    using Counters for Counters.Counter;\n    Counters.Counter private _tokenIds;\n\n    mapping(address => uint256) public Track;\n\n    constructor(string memory _name, string memory _symbol)\n        ERC721(_name, _symbol)\n    {}\n\n    function _create(address receiver, string memory _tokenURI)\n        internal\n        returns (uint256)\n    {\n        uint256 newItemId = _tokenIds.current();\n        _mint(receiver, newItemId);\n        _setTokenURI(newItemId, _tokenURI);\n        Track[receiver] = newItemId;\n\n        _tokenIds.increment();\n        return newItemId;\n    }\n\n    function _transferNFT(\n        address _sender,\n        address _receiver,\n        uint256 _tokenId,\n        string memory _tokenURI\n    ) internal {\n        _transfer(_sender, _receiver, _tokenId);\n        _setTokenURI(_tokenId, _tokenURI);\n\n        // update mappings\n        delete Track[_sender];\n        Track[_receiver] = _tokenId;\n    }\n}\n\ncontract Fractional is FractionNFT {\n    using SafeMath for uint256;\n    address immutable _platformAdmin;\n\n    // NFT ID => owner\n    mapping(uint256 => address payable) idToOwner;\n    // NFT ID => Price\n    mapping(uint256 => uint256) public idToPrice;\n    // NFT ID => share value\n    mapping(uint256 => uint256) public idToShareValue;\n    // NFT id => ERC20 share\n    mapping(uint256 => ERC20) public idToShare;\n\n    constructor(string memory _name, string memory _symbol)\n        FractionNFT(_name, _symbol)\n    {\n        _platformAdmin = msg.sender;\n    }\n\n    // create NFT from fractional contract\n    function createNFT(string memory _tokenURI, uint256 _price) public {\n        // create NFT\n        uint256 _tokenID = _create(msg.sender, _tokenURI);\n\n        // update mapping\n        idToPrice[_tokenID] = _price * 1e18;\n        idToOwner[_tokenID] = payable(msg.sender);\n    }\n\n    // lock NFT in fractional contract\n    function lockNFT(\n        uint256 _tokenID,\n        string memory _tokenURI,\n        uint256 _sharesAmount\n    ) public {\n        // transfer NFT to contract\n        _transferNFT(msg.sender, address(this), _tokenID, _tokenURI);\n\n        // mint & transfer ERC20 to contract\n        // set name of new token\n        string memory tokenID = Strings.toString(_tokenID);\n        string memory _tokenName = \"FractionNFT\";\n        string memory tokenName = string(abi.encodePacked(_tokenName, tokenID));\n\n        // set symbol of new token\n        string memory _tokenSymbol = \"FNFT\";\n        string memory tokenSymbol = string(\n            abi.encodePacked(_tokenSymbol, tokenID)\n        );\n\n        // create new token\n        ERC20 fToken = new ERC20(tokenName, tokenSymbol, _sharesAmount);\n\n        // transfer tokens to this contract address\n        fToken.transfer(address(this), _sharesAmount);\n        // update mapping\n        idToShare[_tokenID] = fToken;       \n\n        // update share value\n        uint256 _price = idToPrice[_tokenID];\n        idToShareValue[_tokenID] = _price.div(_sharesAmount);\n    }\n\n    // function for user to buy shares of NFT and hold ERC20 as validation token of the purchase\n    function buyFractionalShares(uint256 _tokenID, uint256 _totalShares)\n        public\n        payable\n    {\n        require(\n            msg.value >= idToShareValue[_tokenID].mul(_totalShares),\n            \"Insufficient funds\"\n        );\n\n        // user sends ETH to owner\n        address payable nftOwner = idToOwner[_tokenID];\n        uint256 _amount = idToShareValue[_tokenID].mul(_totalShares);\n        nftOwner.transfer(_amount);\n\n        idToShare[_tokenID].transfer(msg.sender, _totalShares);\n    }\n}\n",
  "sourcePath": "/home/dhruv/Desktop/projects/dApps/10 - fractionalNFT/contracts/Fractional.sol",
  "compiler": {
    "name": "solc",
    "version": "0.8.13+commit.abaa5c0e.Emscripten.clang"
  },
  "schemaVersion": "3.4.7",
  "updatedAt": "2022-06-06T15:40:54.734Z",
  "devdoc": {
    "kind": "dev",
    "methods": {
      "approve(address,uint256)": {
        "details": "See {IERC721-approve}."
      },
      "balanceOf(address)": {
        "details": "See {IERC721-balanceOf}."
      },
      "getApproved(uint256)": {
        "details": "See {IERC721-getApproved}."
      },
      "isApprovedForAll(address,address)": {
        "details": "See {IERC721-isApprovedForAll}."
      },
      "name()": {
        "details": "See {IERC721Metadata-name}."
      },
      "ownerOf(uint256)": {
        "details": "See {IERC721-ownerOf}."
      },
      "safeTransferFrom(address,address,uint256)": {
        "details": "See {IERC721-safeTransferFrom}."
      },
      "safeTransferFrom(address,address,uint256,bytes)": {
        "details": "See {IERC721-safeTransferFrom}."
      },
      "setApprovalForAll(address,bool)": {
        "details": "See {IERC721-setApprovalForAll}."
      },
      "supportsInterface(bytes4)": {
        "details": "See {IERC165-supportsInterface}."
      },
      "symbol()": {
        "details": "See {IERC721Metadata-symbol}."
      },
      "tokenURI(uint256)": {
        "details": "See {IERC721Metadata-tokenURI}."
      },
      "transferFrom(address,address,uint256)": {
        "details": "See {IERC721-transferFrom}."
      }
    },
    "version": 1
  },
  "userdoc": {
    "kind": "user",
    "methods": {},
    "version": 1
  }
}